{
  "_format": "hh3-artifact-1",
  "contractName": "VoucherProtocol",
  "sourceName": "contracts/VoucherProtocol.sol",
  "abi": [
    {
      "inputs": [],
      "stateMutability": "nonpayable",
      "type": "constructor"
    },
    {
      "inputs": [],
      "name": "AccessControlBadConfirmation",
      "type": "error"
    },
    {
      "inputs": [
        {
          "internalType": "address",
          "name": "account",
          "type": "address"
        },
        {
          "internalType": "bytes32",
          "name": "neededRole",
          "type": "bytes32"
        }
      ],
      "name": "AccessControlUnauthorizedAccount",
      "type": "error"
    },
    {
      "inputs": [],
      "name": "AlreadyCoSigned",
      "type": "error"
    },
    {
      "inputs": [],
      "name": "CoSignerNotWhitelisted",
      "type": "error"
    },
    {
      "inputs": [],
      "name": "DocumentAlreadyExists",
      "type": "error"
    },
    {
      "inputs": [],
      "name": "DocumentAlreadyRevoked",
      "type": "error"
    },
    {
      "inputs": [],
      "name": "DocumentNotFound",
      "type": "error"
    },
    {
      "inputs": [],
      "name": "DocumentNotValid",
      "type": "error"
    },
    {
      "inputs": [],
      "name": "ECDSAInvalidSignature",
      "type": "error"
    },
    {
      "inputs": [
        {
          "internalType": "uint256",
          "name": "length",
          "type": "uint256"
        }
      ],
      "name": "ECDSAInvalidSignatureLength",
      "type": "error"
    },
    {
      "inputs": [
        {
          "internalType": "bytes32",
          "name": "s",
          "type": "bytes32"
        }
      ],
      "name": "ECDSAInvalidSignatureS",
      "type": "error"
    },
    {
      "inputs": [],
      "name": "EthTransferFailed",
      "type": "error"
    },
    {
      "inputs": [],
      "name": "ExpiredSignature",
      "type": "error"
    },
    {
      "inputs": [
        {
          "internalType": "uint256",
          "name": "currentStake",
          "type": "uint256"
        },
        {
          "internalType": "uint256",
          "name": "requiredStake",
          "type": "uint256"
        }
      ],
      "name": "InsufficientCoSignStake",
      "type": "error"
    },
    {
      "inputs": [
        {
          "internalType": "uint256",
          "name": "sent",
          "type": "uint256"
        },
        {
          "internalType": "uint256",
          "name": "required",
          "type": "uint256"
        }
      ],
      "name": "InsufficientStake",
      "type": "error"
    },
    {
      "inputs": [],
      "name": "InvalidCoSignPolicy",
      "type": "error"
    },
    {
      "inputs": [],
      "name": "InvalidCoSignRole",
      "type": "error"
    },
    {
      "inputs": [],
      "name": "InvalidConfigValue",
      "type": "error"
    },
    {
      "inputs": [
        {
          "internalType": "uint16",
          "name": "provided",
          "type": "uint16"
        }
      ],
      "name": "InvalidPenaltyBps",
      "type": "error"
    },
    {
      "inputs": [],
      "name": "InvalidRecoveryTarget",
      "type": "error"
    },
    {
      "inputs": [],
      "name": "InvalidSignature",
      "type": "error"
    },
    {
      "inputs": [],
      "name": "InvalidTenantAddress",
      "type": "error"
    },
    {
      "inputs": [],
      "name": "NoPendingUnstake",
      "type": "error"
    },
    {
      "inputs": [],
      "name": "NoStake",
      "type": "error"
    },
    {
      "inputs": [],
      "name": "NoStakeToRecover",
      "type": "error"
    },
    {
      "inputs": [],
      "name": "OperatorAlreadyActive",
      "type": "error"
    },
    {
      "inputs": [],
      "name": "OperatorNotActive",
      "type": "error"
    },
    {
      "inputs": [],
      "name": "OperatorNotInTenant",
      "type": "error"
    },
    {
      "inputs": [],
      "name": "OperatorNotLost",
      "type": "error"
    },
    {
      "inputs": [
        {
          "internalType": "bytes32",
          "name": "violationCode",
          "type": "bytes32"
        }
      ],
      "name": "PenaltyNotConfigured",
      "type": "error"
    },
    {
      "inputs": [],
      "name": "RecoveryNotAllowed",
      "type": "error"
    },
    {
      "inputs": [],
      "name": "ReentrancyGuardReentrantCall",
      "type": "error"
    },
    {
      "inputs": [],
      "name": "TenantAlreadyExists",
      "type": "error"
    },
    {
      "inputs": [],
      "name": "TenantInactive",
      "type": "error"
    },
    {
      "inputs": [],
      "name": "TenantNotFound",
      "type": "error"
    },
    {
      "inputs": [],
      "name": "Unauthorized",
      "type": "error"
    },
    {
      "inputs": [],
      "name": "UnstakeInProgress",
      "type": "error"
    },
    {
      "inputs": [
        {
          "internalType": "uint256",
          "name": "readyAt",
          "type": "uint256"
        }
      ],
      "name": "UnstakeNotReady",
      "type": "error"
    },
    {
      "anonymous": false,
      "inputs": [
        {
          "indexed": true,
          "internalType": "bytes32",
          "name": "tenantId",
          "type": "bytes32"
        },
        {
          "indexed": true,
          "internalType": "uint32",
          "name": "docType",
          "type": "uint32"
        },
        {
          "indexed": true,
          "internalType": "address",
          "name": "operator",
          "type": "address"
        },
        {
          "indexed": false,
          "internalType": "bool",
          "name": "whitelisted",
          "type": "bool"
        },
        {
          "indexed": false,
          "internalType": "uint16",
          "name": "roleId",
          "type": "uint16"
        }
      ],
      "name": "CoSignOperatorConfigured",
      "type": "event"
    },
    {
      "anonymous": false,
      "inputs": [
        {
          "indexed": true,
          "internalType": "bytes32",
          "name": "tenantId",
          "type": "bytes32"
        },
        {
          "indexed": true,
          "internalType": "uint32",
          "name": "docType",
          "type": "uint32"
        },
        {
          "indexed": false,
          "internalType": "bool",
          "name": "enabled",
          "type": "bool"
        },
        {
          "indexed": false,
          "internalType": "uint256",
          "name": "minStake",
          "type": "uint256"
        },
        {
          "indexed": false,
          "internalType": "uint256",
          "name": "minSigners",
          "type": "uint256"
        },
        {
          "indexed": false,
          "internalType": "uint256",
          "name": "requiredRoleMask",
          "type": "uint256"
        }
      ],
      "name": "CoSignPolicyUpdated",
      "type": "event"
    },
    {
      "anonymous": false,
      "inputs": [
        {
          "indexed": true,
          "internalType": "bytes32",
          "name": "tenantId",
          "type": "bytes32"
        },
        {
          "indexed": true,
          "internalType": "bytes32",
          "name": "fileHash",
          "type": "bytes32"
        },
        {
          "indexed": false,
          "internalType": "string",
          "name": "cid",
          "type": "string"
        },
        {
          "indexed": true,
          "internalType": "address",
          "name": "issuer",
          "type": "address"
        },
        {
          "indexed": false,
          "internalType": "bytes32",
          "name": "ciphertextHash",
          "type": "bytes32"
        },
        {
          "indexed": false,
          "internalType": "bytes32",
          "name": "encryptionMetaHash",
          "type": "bytes32"
        },
        {
          "indexed": false,
          "internalType": "uint32",
          "name": "docType",
          "type": "uint32"
        },
        {
          "indexed": false,
          "internalType": "uint32",
          "name": "version",
          "type": "uint32"
        }
      ],
      "name": "DocumentAnchored",
      "type": "event"
    },
    {
      "anonymous": false,
      "inputs": [
        {
          "indexed": true,
          "internalType": "bytes32",
          "name": "tenantId",
          "type": "bytes32"
        },
        {
          "indexed": true,
          "internalType": "bytes32",
          "name": "fileHash",
          "type": "bytes32"
        },
        {
          "indexed": false,
          "internalType": "uint256",
          "name": "trustedSigners",
          "type": "uint256"
        },
        {
          "indexed": false,
          "internalType": "uint256",
          "name": "roleMask",
          "type": "uint256"
        }
      ],
      "name": "DocumentCoSignQualified",
      "type": "event"
    },
    {
      "anonymous": false,
      "inputs": [
        {
          "indexed": true,
          "internalType": "bytes32",
          "name": "tenantId",
          "type": "bytes32"
        },
        {
          "indexed": true,
          "internalType": "bytes32",
          "name": "fileHash",
          "type": "bytes32"
        },
        {
          "indexed": true,
          "internalType": "address",
          "name": "signer",
          "type": "address"
        },
        {
          "indexed": false,
          "internalType": "uint256",
          "name": "totalSigners",
          "type": "uint256"
        }
      ],
      "name": "DocumentCoSigned",
      "type": "event"
    },
    {
      "anonymous": false,
      "inputs": [
        {
          "indexed": true,
          "internalType": "bytes32",
          "name": "tenantId",
          "type": "bytes32"
        },
        {
          "indexed": true,
          "internalType": "bytes32",
          "name": "fileHash",
          "type": "bytes32"
        },
        {
          "indexed": true,
          "internalType": "address",
          "name": "revoker",
          "type": "address"
        },
        {
          "indexed": false,
          "internalType": "string",
          "name": "reason",
          "type": "string"
        }
      ],
      "name": "DocumentRevoked",
      "type": "event"
    },
    {
      "anonymous": false,
      "inputs": [
        {
          "indexed": true,
          "internalType": "bytes32",
          "name": "tenantId",
          "type": "bytes32"
        },
        {
          "indexed": false,
          "internalType": "uint256",
          "name": "oldValue",
          "type": "uint256"
        },
        {
          "indexed": false,
          "internalType": "uint256",
          "name": "newValue",
          "type": "uint256"
        }
      ],
      "name": "MinOperatorStakeUpdated",
      "type": "event"
    },
    {
      "anonymous": false,
      "inputs": [
        {
          "indexed": true,
          "internalType": "bytes32",
          "name": "tenantId",
          "type": "bytes32"
        },
        {
          "indexed": true,
          "internalType": "address",
          "name": "signer",
          "type": "address"
        },
        {
          "indexed": false,
          "internalType": "uint256",
          "name": "oldNonce",
          "type": "uint256"
        },
        {
          "indexed": false,
          "internalType": "uint256",
          "name": "newNonce",
          "type": "uint256"
        }
      ],
      "name": "NonceConsumed",
      "type": "event"
    },
    {
      "anonymous": false,
      "inputs": [
        {
          "indexed": true,
          "internalType": "bytes32",
          "name": "tenantId",
          "type": "bytes32"
        },
        {
          "indexed": true,
          "internalType": "address",
          "name": "operator",
          "type": "address"
        },
        {
          "indexed": false,
          "internalType": "string",
          "name": "metadata",
          "type": "string"
        },
        {
          "indexed": false,
          "internalType": "uint256",
          "name": "stake",
          "type": "uint256"
        }
      ],
      "name": "OperatorJoined",
      "type": "event"
    },
    {
      "anonymous": false,
      "inputs": [
        {
          "indexed": true,
          "internalType": "bytes32",
          "name": "tenantId",
          "type": "bytes32"
        },
        {
          "indexed": true,
          "internalType": "address",
          "name": "operator",
          "type": "address"
        },
        {
          "indexed": false,
          "internalType": "string",
          "name": "metadataURI",
          "type": "string"
        }
      ],
      "name": "OperatorMetadataUpdated",
      "type": "event"
    },
    {
      "anonymous": false,
      "inputs": [
        {
          "indexed": true,
          "internalType": "bytes32",
          "name": "tenantId",
          "type": "bytes32"
        },
        {
          "indexed": true,
          "internalType": "address",
          "name": "oldOperator",
          "type": "address"
        },
        {
          "indexed": true,
          "internalType": "address",
          "name": "newOperator",
          "type": "address"
        },
        {
          "indexed": false,
          "internalType": "uint256",
          "name": "stakeAmount",
          "type": "uint256"
        },
        {
          "indexed": false,
          "internalType": "string",
          "name": "reason",
          "type": "string"
        }
      ],
      "name": "OperatorRecovered",
      "type": "event"
    },
    {
      "anonymous": false,
      "inputs": [
        {
          "indexed": true,
          "internalType": "bytes32",
          "name": "tenantId",
          "type": "bytes32"
        },
        {
          "indexed": true,
          "internalType": "address",
          "name": "operator",
          "type": "address"
        },
        {
          "indexed": true,
          "internalType": "address",
          "name": "delegate",
          "type": "address"
        }
      ],
      "name": "OperatorRecoveryDelegateUpdated",
      "type": "event"
    },
    {
      "anonymous": false,
      "inputs": [
        {
          "indexed": true,
          "internalType": "bytes32",
          "name": "tenantId",
          "type": "bytes32"
        },
        {
          "indexed": true,
          "internalType": "address",
          "name": "operator",
          "type": "address"
        },
        {
          "indexed": false,
          "internalType": "uint256",
          "name": "amount",
          "type": "uint256"
        },
        {
          "indexed": true,
          "internalType": "address",
          "name": "slasher",
          "type": "address"
        },
        {
          "indexed": false,
          "internalType": "string",
          "name": "reason",
          "type": "string"
        }
      ],
      "name": "OperatorSlashed",
      "type": "event"
    },
    {
      "anonymous": false,
      "inputs": [
        {
          "indexed": true,
          "internalType": "bytes32",
          "name": "tenantId",
          "type": "bytes32"
        },
        {
          "indexed": true,
          "internalType": "address",
          "name": "operator",
          "type": "address"
        },
        {
          "indexed": true,
          "internalType": "bytes32",
          "name": "violationCode",
          "type": "bytes32"
        },
        {
          "indexed": false,
          "internalType": "uint16",
          "name": "penaltyBps",
          "type": "uint16"
        },
        {
          "indexed": false,
          "internalType": "uint256",
          "name": "slashedAmount",
          "type": "uint256"
        },
        {
          "indexed": false,
          "internalType": "uint256",
          "name": "remainingStake",
          "type": "uint256"
        },
        {
          "indexed": false,
          "internalType": "address",
          "name": "slasher",
          "type": "address"
        },
        {
          "indexed": false,
          "internalType": "string",
          "name": "reason",
          "type": "string"
        }
      ],
      "name": "OperatorSoftSlashed",
      "type": "event"
    },
    {
      "anonymous": false,
      "inputs": [
        {
          "indexed": true,
          "internalType": "bytes32",
          "name": "tenantId",
          "type": "bytes32"
        },
        {
          "indexed": true,
          "internalType": "address",
          "name": "operator",
          "type": "address"
        },
        {
          "indexed": false,
          "internalType": "uint256",
          "name": "amount",
          "type": "uint256"
        },
        {
          "indexed": false,
          "internalType": "uint256",
          "name": "totalStake",
          "type": "uint256"
        }
      ],
      "name": "OperatorStakeToppedUp",
      "type": "event"
    },
    {
      "anonymous": false,
      "inputs": [
        {
          "indexed": true,
          "internalType": "bytes32",
          "name": "tenantId",
          "type": "bytes32"
        },
        {
          "indexed": true,
          "internalType": "address",
          "name": "operator",
          "type": "address"
        },
        {
          "indexed": false,
          "internalType": "bool",
          "name": "isActive",
          "type": "bool"
        },
        {
          "indexed": false,
          "internalType": "string",
          "name": "reason",
          "type": "string"
        }
      ],
      "name": "OperatorStatusUpdated",
      "type": "event"
    },
    {
      "anonymous": false,
      "inputs": [
        {
          "indexed": true,
          "internalType": "bytes32",
          "name": "tenantId",
          "type": "bytes32"
        },
        {
          "indexed": true,
          "internalType": "address",
          "name": "operator",
          "type": "address"
        },
        {
          "indexed": false,
          "internalType": "uint256",
          "name": "availableAt",
          "type": "uint256"
        }
      ],
      "name": "OperatorUnstakeRequested",
      "type": "event"
    },
    {
      "anonymous": false,
      "inputs": [
        {
          "indexed": true,
          "internalType": "bytes32",
          "name": "tenantId",
          "type": "bytes32"
        },
        {
          "indexed": true,
          "internalType": "address",
          "name": "operator",
          "type": "address"
        },
        {
          "indexed": false,
          "internalType": "uint256",
          "name": "amount",
          "type": "uint256"
        }
      ],
      "name": "OperatorUnstaked",
      "type": "event"
    },
    {
      "anonymous": false,
      "inputs": [
        {
          "indexed": true,
          "internalType": "address",
          "name": "protocolOwner",
          "type": "address"
        }
      ],
      "name": "ProtocolInitialized",
      "type": "event"
    },
    {
      "anonymous": false,
      "inputs": [
        {
          "indexed": true,
          "internalType": "bytes32",
          "name": "role",
          "type": "bytes32"
        },
        {
          "indexed": true,
          "internalType": "bytes32",
          "name": "previousAdminRole",
          "type": "bytes32"
        },
        {
          "indexed": true,
          "internalType": "bytes32",
          "name": "newAdminRole",
          "type": "bytes32"
        }
      ],
      "name": "RoleAdminChanged",
      "type": "event"
    },
    {
      "anonymous": false,
      "inputs": [
        {
          "indexed": true,
          "internalType": "bytes32",
          "name": "role",
          "type": "bytes32"
        },
        {
          "indexed": true,
          "internalType": "address",
          "name": "account",
          "type": "address"
        },
        {
          "indexed": true,
          "internalType": "address",
          "name": "sender",
          "type": "address"
        }
      ],
      "name": "RoleGranted",
      "type": "event"
    },
    {
      "anonymous": false,
      "inputs": [
        {
          "indexed": true,
          "internalType": "bytes32",
          "name": "role",
          "type": "bytes32"
        },
        {
          "indexed": true,
          "internalType": "address",
          "name": "account",
          "type": "address"
        },
        {
          "indexed": true,
          "internalType": "address",
          "name": "sender",
          "type": "address"
        }
      ],
      "name": "RoleRevoked",
      "type": "event"
    },
    {
      "anonymous": false,
      "inputs": [
        {
          "indexed": true,
          "internalType": "bytes32",
          "name": "tenantId",
          "type": "bytes32"
        },
        {
          "indexed": true,
          "internalType": "address",
          "name": "admin",
          "type": "address"
        },
        {
          "indexed": true,
          "internalType": "address",
          "name": "treasury",
          "type": "address"
        }
      ],
      "name": "TenantCreated",
      "type": "event"
    },
    {
      "anonymous": false,
      "inputs": [
        {
          "indexed": true,
          "internalType": "bytes32",
          "name": "tenantId",
          "type": "bytes32"
        },
        {
          "indexed": false,
          "internalType": "bool",
          "name": "isActive",
          "type": "bool"
        }
      ],
      "name": "TenantStatusUpdated",
      "type": "event"
    },
    {
      "anonymous": false,
      "inputs": [
        {
          "indexed": true,
          "internalType": "bytes32",
          "name": "tenantId",
          "type": "bytes32"
        },
        {
          "indexed": true,
          "internalType": "address",
          "name": "oldTreasury",
          "type": "address"
        },
        {
          "indexed": true,
          "internalType": "address",
          "name": "newTreasury",
          "type": "address"
        }
      ],
      "name": "TreasuryUpdated",
      "type": "event"
    },
    {
      "anonymous": false,
      "inputs": [
        {
          "indexed": true,
          "internalType": "bytes32",
          "name": "tenantId",
          "type": "bytes32"
        },
        {
          "indexed": false,
          "internalType": "uint256",
          "name": "oldValue",
          "type": "uint256"
        },
        {
          "indexed": false,
          "internalType": "uint256",
          "name": "newValue",
          "type": "uint256"
        }
      ],
      "name": "UnstakeCooldownUpdated",
      "type": "event"
    },
    {
      "anonymous": false,
      "inputs": [
        {
          "indexed": true,
          "internalType": "bytes32",
          "name": "tenantId",
          "type": "bytes32"
        },
        {
          "indexed": true,
          "internalType": "bytes32",
          "name": "violationCode",
          "type": "bytes32"
        },
        {
          "indexed": false,
          "internalType": "uint16",
          "name": "oldPenaltyBps",
          "type": "uint16"
        },
        {
          "indexed": false,
          "internalType": "uint16",
          "name": "newPenaltyBps",
          "type": "uint16"
        }
      ],
      "name": "ViolationPenaltyUpdated",
      "type": "event"
    },
    {
      "inputs": [],
      "name": "COSIGN_ROLE_NONE",
      "outputs": [
        {
          "internalType": "uint16",
          "name": "",
          "type": "uint16"
        }
      ],
      "stateMutability": "view",
      "type": "function"
    },
    {
      "inputs": [],
      "name": "DEFAULT_ADMIN_ROLE",
      "outputs": [
        {
          "internalType": "bytes32",
          "name": "",
          "type": "bytes32"
        }
      ],
      "stateMutability": "view",
      "type": "function"
    },
    {
      "inputs": [],
      "name": "MAX_COSIGN_ROLE_ID",
      "outputs": [
        {
          "internalType": "uint16",
          "name": "",
          "type": "uint16"
        }
      ],
      "stateMutability": "view",
      "type": "function"
    },
    {
      "inputs": [],
      "name": "MAX_PENALTY_BPS",
      "outputs": [
        {
          "internalType": "uint16",
          "name": "",
          "type": "uint16"
        }
      ],
      "stateMutability": "view",
      "type": "function"
    },
    {
      "inputs": [],
      "name": "MIN_COSIGN_ROLE_ID",
      "outputs": [
        {
          "internalType": "uint16",
          "name": "",
          "type": "uint16"
        }
      ],
      "stateMutability": "view",
      "type": "function"
    },
    {
      "inputs": [],
      "name": "MIN_STAKE",
      "outputs": [
        {
          "internalType": "uint256",
          "name": "",
          "type": "uint256"
        }
      ],
      "stateMutability": "view",
      "type": "function"
    },
    {
      "inputs": [],
      "name": "PROTOCOL_ADMIN_ROLE",
      "outputs": [
        {
          "internalType": "bytes32",
          "name": "",
          "type": "bytes32"
        }
      ],
      "stateMutability": "view",
      "type": "function"
    },
    {
      "inputs": [],
      "name": "UNSTAKE_COOLDOWN",
      "outputs": [
        {
          "internalType": "uint256",
          "name": "",
          "type": "uint256"
        }
      ],
      "stateMutability": "view",
      "type": "function"
    },
    {
      "inputs": [
        {
          "internalType": "bytes32",
          "name": "",
          "type": "bytes32"
        },
        {
          "internalType": "bytes32",
          "name": "",
          "type": "bytes32"
        }
      ],
      "name": "coSignCount",
      "outputs": [
        {
          "internalType": "uint256",
          "name": "",
          "type": "uint256"
        }
      ],
      "stateMutability": "view",
      "type": "function"
    },
    {
      "inputs": [
        {
          "components": [
            {
              "internalType": "bytes32",
              "name": "tenantId",
              "type": "bytes32"
            },
            {
              "internalType": "bytes32",
              "name": "fileHash",
              "type": "bytes32"
            },
            {
              "internalType": "uint256",
              "name": "nonce",
              "type": "uint256"
            },
            {
              "internalType": "uint256",
              "name": "deadline",
              "type": "uint256"
            }
          ],
          "internalType": "struct VoucherProtocol.CoSignPayload",
          "name": "payload",
          "type": "tuple"
        },
        {
          "internalType": "bytes",
          "name": "signature",
          "type": "bytes"
        }
      ],
      "name": "coSignDocumentWithSignature",
      "outputs": [],
      "stateMutability": "nonpayable",
      "type": "function"
    },
    {
      "inputs": [
        {
          "internalType": "bytes32",
          "name": "",
          "type": "bytes32"
        },
        {
          "internalType": "bytes32",
          "name": "",
          "type": "bytes32"
        }
      ],
      "name": "coSignQualified",
      "outputs": [
        {
          "internalType": "bool",
          "name": "",
          "type": "bool"
        }
      ],
      "stateMutability": "view",
      "type": "function"
    },
    {
      "inputs": [
        {
          "internalType": "bytes32",
          "name": "tenantId",
          "type": "bytes32"
        },
        {
          "internalType": "address",
          "name": "tenantAdmin",
          "type": "address"
        },
        {
          "internalType": "address",
          "name": "tenantTreasury",
          "type": "address"
        }
      ],
      "name": "createTenant",
      "outputs": [],
      "stateMutability": "nonpayable",
      "type": "function"
    },
    {
      "inputs": [
        {
          "internalType": "bytes32",
          "name": "",
          "type": "bytes32"
        },
        {
          "internalType": "bytes32",
          "name": "",
          "type": "bytes32"
        },
        {
          "internalType": "address",
          "name": "",
          "type": "address"
        }
      ],
      "name": "documentSigners",
      "outputs": [
        {
          "internalType": "bool",
          "name": "",
          "type": "bool"
        }
      ],
      "stateMutability": "view",
      "type": "function"
    },
    {
      "inputs": [
        {
          "internalType": "bytes32",
          "name": "",
          "type": "bytes32"
        },
        {
          "internalType": "bytes32",
          "name": "",
          "type": "bytes32"
        }
      ],
      "name": "documents",
      "outputs": [
        {
          "internalType": "bytes32",
          "name": "tenantId",
          "type": "bytes32"
        },
        {
          "internalType": "string",
          "name": "cid",
          "type": "string"
        },
        {
          "internalType": "address",
          "name": "issuer",
          "type": "address"
        },
        {
          "internalType": "uint256",
          "name": "timestamp",
          "type": "uint256"
        },
        {
          "internalType": "bool",
          "name": "isValid",
          "type": "bool"
        },
        {
          "internalType": "bytes32",
          "name": "ciphertextHash",
          "type": "bytes32"
        },
        {
          "internalType": "bytes32",
          "name": "encryptionMetaHash",
          "type": "bytes32"
        },
        {
          "internalType": "uint32",
          "name": "docType",
          "type": "uint32"
        },
        {
          "internalType": "uint32",
          "name": "version",
          "type": "uint32"
        }
      ],
      "stateMutability": "view",
      "type": "function"
    },
    {
      "inputs": [
        {
          "internalType": "bytes32",
          "name": "tenantId",
          "type": "bytes32"
        }
      ],
      "name": "executeUnstake",
      "outputs": [],
      "stateMutability": "nonpayable",
      "type": "function"
    },
    {
      "inputs": [
        {
          "internalType": "bytes32",
          "name": "tenantId",
          "type": "bytes32"
        },
        {
          "internalType": "uint32",
          "name": "docType",
          "type": "uint32"
        }
      ],
      "name": "getCoSignPolicyStruct",
      "outputs": [
        {
          "components": [
            {
              "internalType": "bool",
              "name": "enabled",
              "type": "bool"
            },
            {
              "internalType": "uint256",
              "name": "minStake",
              "type": "uint256"
            },
            {
              "internalType": "uint256",
              "name": "minSigners",
              "type": "uint256"
            },
            {
              "internalType": "uint256",
              "name": "requiredRoleMask",
              "type": "uint256"
            }
          ],
          "internalType": "struct VoucherProtocol.CoSignPolicy",
          "name": "",
          "type": "tuple"
        }
      ],
      "stateMutability": "view",
      "type": "function"
    },
    {
      "inputs": [
        {
          "internalType": "bytes32",
          "name": "tenantId",
          "type": "bytes32"
        },
        {
          "internalType": "bytes32",
          "name": "fileHash",
          "type": "bytes32"
        }
      ],
      "name": "getDocument",
      "outputs": [
        {
          "components": [
            {
              "internalType": "bytes32",
              "name": "tenantId",
              "type": "bytes32"
            },
            {
              "internalType": "string",
              "name": "cid",
              "type": "string"
            },
            {
              "internalType": "address",
              "name": "issuer",
              "type": "address"
            },
            {
              "internalType": "uint256",
              "name": "timestamp",
              "type": "uint256"
            },
            {
              "internalType": "bool",
              "name": "isValid",
              "type": "bool"
            },
            {
              "internalType": "bytes32",
              "name": "ciphertextHash",
              "type": "bytes32"
            },
            {
              "internalType": "bytes32",
              "name": "encryptionMetaHash",
              "type": "bytes32"
            },
            {
              "internalType": "uint32",
              "name": "docType",
              "type": "uint32"
            },
            {
              "internalType": "uint32",
              "name": "version",
              "type": "uint32"
            }
          ],
          "internalType": "struct VoucherProtocol.Document",
          "name": "",
          "type": "tuple"
        }
      ],
      "stateMutability": "view",
      "type": "function"
    },
    {
      "inputs": [
        {
          "internalType": "bytes32",
          "name": "tenantId",
          "type": "bytes32"
        },
        {
          "internalType": "address",
          "name": "operator",
          "type": "address"
        }
      ],
      "name": "getOperatorStruct",
      "outputs": [
        {
          "components": [
            {
              "internalType": "bytes32",
              "name": "tenantId",
              "type": "bytes32"
            },
            {
              "internalType": "string",
              "name": "metadataURI",
              "type": "string"
            },
            {
              "internalType": "uint256",
              "name": "stakeAmount",
              "type": "uint256"
            },
            {
              "internalType": "bool",
              "name": "isActive",
              "type": "bool"
            }
          ],
          "internalType": "struct VoucherProtocol.Operator",
          "name": "",
          "type": "tuple"
        }
      ],
      "stateMutability": "view",
      "type": "function"
    },
    {
      "inputs": [
        {
          "internalType": "bytes32",
          "name": "role",
          "type": "bytes32"
        }
      ],
      "name": "getRoleAdmin",
      "outputs": [
        {
          "internalType": "bytes32",
          "name": "",
          "type": "bytes32"
        }
      ],
      "stateMutability": "view",
      "type": "function"
    },
    {
      "inputs": [
        {
          "internalType": "uint256",
          "name": "index",
          "type": "uint256"
        }
      ],
      "name": "getTenantAtIndex",
      "outputs": [
        {
          "internalType": "bytes32",
          "name": "",
          "type": "bytes32"
        }
      ],
      "stateMutability": "view",
      "type": "function"
    },
    {
      "inputs": [],
      "name": "getTenantListLength",
      "outputs": [
        {
          "internalType": "uint256",
          "name": "",
          "type": "uint256"
        }
      ],
      "stateMutability": "view",
      "type": "function"
    },
    {
      "inputs": [
        {
          "internalType": "bytes32",
          "name": "tenantId",
          "type": "bytes32"
        }
      ],
      "name": "getTenantStruct",
      "outputs": [
        {
          "components": [
            {
              "internalType": "address",
              "name": "admin",
              "type": "address"
            },
            {
              "internalType": "address",
              "name": "treasury",
              "type": "address"
            },
            {
              "internalType": "bool",
              "name": "isActive",
              "type": "bool"
            },
            {
              "internalType": "uint256",
              "name": "createdAt",
              "type": "uint256"
            }
          ],
          "internalType": "struct VoucherProtocol.Tenant",
          "name": "",
          "type": "tuple"
        }
      ],
      "stateMutability": "view",
      "type": "function"
    },
    {
      "inputs": [
        {
          "internalType": "bytes32",
          "name": "role",
          "type": "bytes32"
        },
        {
          "internalType": "address",
          "name": "account",
          "type": "address"
        }
      ],
      "name": "grantRole",
      "outputs": [],
      "stateMutability": "nonpayable",
      "type": "function"
    },
    {
      "inputs": [
        {
          "internalType": "bytes32",
          "name": "role",
          "type": "bytes32"
        },
        {
          "internalType": "address",
          "name": "account",
          "type": "address"
        }
      ],
      "name": "hasRole",
      "outputs": [
        {
          "internalType": "bool",
          "name": "",
          "type": "bool"
        }
      ],
      "stateMutability": "view",
      "type": "function"
    },
    {
      "inputs": [
        {
          "internalType": "bytes32",
          "name": "tenantId",
          "type": "bytes32"
        },
        {
          "internalType": "string",
          "name": "_metadataURI",
          "type": "string"
        }
      ],
      "name": "joinAsOperator",
      "outputs": [],
      "stateMutability": "payable",
      "type": "function"
    },
    {
      "inputs": [
        {
          "internalType": "bytes32",
          "name": "",
          "type": "bytes32"
        },
        {
          "internalType": "address",
          "name": "",
          "type": "address"
        }
      ],
      "name": "nonces",
      "outputs": [
        {
          "internalType": "uint256",
          "name": "",
          "type": "uint256"
        }
      ],
      "stateMutability": "view",
      "type": "function"
    },
    {
      "inputs": [
        {
          "internalType": "bytes32",
          "name": "",
          "type": "bytes32"
        },
        {
          "internalType": "address",
          "name": "",
          "type": "address"
        }
      ],
      "name": "operators",
      "outputs": [
        {
          "internalType": "bytes32",
          "name": "tenantId",
          "type": "bytes32"
        },
        {
          "internalType": "string",
          "name": "metadataURI",
          "type": "string"
        },
        {
          "internalType": "uint256",
          "name": "stakeAmount",
          "type": "uint256"
        },
        {
          "internalType": "bool",
          "name": "isActive",
          "type": "bool"
        }
      ],
      "stateMutability": "view",
      "type": "function"
    },
    {
      "inputs": [
        {
          "internalType": "bytes32",
          "name": "",
          "type": "bytes32"
        },
        {
          "internalType": "address",
          "name": "",
          "type": "address"
        }
      ],
      "name": "pendingUnstakeAt",
      "outputs": [
        {
          "internalType": "uint256",
          "name": "",
          "type": "uint256"
        }
      ],
      "stateMutability": "view",
      "type": "function"
    },
    {
      "inputs": [],
      "name": "protocolOwner",
      "outputs": [
        {
          "internalType": "address",
          "name": "",
          "type": "address"
        }
      ],
      "stateMutability": "view",
      "type": "function"
    },
    {
      "inputs": [
        {
          "internalType": "bytes32",
          "name": "tenantId",
          "type": "bytes32"
        },
        {
          "internalType": "address",
          "name": "lostOperator",
          "type": "address"
        },
        {
          "internalType": "address",
          "name": "newOperator",
          "type": "address"
        },
        {
          "internalType": "string",
          "name": "reason",
          "type": "string"
        }
      ],
      "name": "recoverOperatorByAdmin",
      "outputs": [],
      "stateMutability": "nonpayable",
      "type": "function"
    },
    {
      "inputs": [
        {
          "internalType": "bytes32",
          "name": "tenantId",
          "type": "bytes32"
        },
        {
          "internalType": "address",
          "name": "lostOperator",
          "type": "address"
        },
        {
          "internalType": "string",
          "name": "reason",
          "type": "string"
        }
      ],
      "name": "recoverOperatorByDelegate",
      "outputs": [],
      "stateMutability": "nonpayable",
      "type": "function"
    },
    {
      "inputs": [
        {
          "internalType": "bytes32",
          "name": "",
          "type": "bytes32"
        },
        {
          "internalType": "address",
          "name": "",
          "type": "address"
        }
      ],
      "name": "recoveryDelegates",
      "outputs": [
        {
          "internalType": "address",
          "name": "",
          "type": "address"
        }
      ],
      "stateMutability": "view",
      "type": "function"
    },
    {
      "inputs": [
        {
          "components": [
            {
              "internalType": "bytes32",
              "name": "tenantId",
              "type": "bytes32"
            },
            {
              "internalType": "bytes32",
              "name": "fileHash",
              "type": "bytes32"
            },
            {
              "internalType": "string",
              "name": "cid",
              "type": "string"
            },
            {
              "internalType": "bytes32",
              "name": "ciphertextHash",
              "type": "bytes32"
            },
            {
              "internalType": "bytes32",
              "name": "encryptionMetaHash",
              "type": "bytes32"
            },
            {
              "internalType": "uint32",
              "name": "docType",
              "type": "uint32"
            },
            {
              "internalType": "uint32",
              "name": "version",
              "type": "uint32"
            },
            {
              "internalType": "uint256",
              "name": "nonce",
              "type": "uint256"
            },
            {
              "internalType": "uint256",
              "name": "deadline",
              "type": "uint256"
            }
          ],
          "internalType": "struct VoucherProtocol.RegisterPayload",
          "name": "payload",
          "type": "tuple"
        },
        {
          "internalType": "bytes",
          "name": "signature",
          "type": "bytes"
        }
      ],
      "name": "registerWithSignature",
      "outputs": [],
      "stateMutability": "nonpayable",
      "type": "function"
    },
    {
      "inputs": [
        {
          "internalType": "bytes32",
          "name": "role",
          "type": "bytes32"
        },
        {
          "internalType": "address",
          "name": "callerConfirmation",
          "type": "address"
        }
      ],
      "name": "renounceRole",
      "outputs": [],
      "stateMutability": "nonpayable",
      "type": "function"
    },
    {
      "inputs": [
        {
          "internalType": "bytes32",
          "name": "tenantId",
          "type": "bytes32"
        }
      ],
      "name": "requestUnstake",
      "outputs": [],
      "stateMutability": "nonpayable",
      "type": "function"
    },
    {
      "inputs": [
        {
          "internalType": "bytes32",
          "name": "tenantId",
          "type": "bytes32"
        },
        {
          "internalType": "bytes32",
          "name": "fileHash",
          "type": "bytes32"
        },
        {
          "internalType": "string",
          "name": "reason",
          "type": "string"
        }
      ],
      "name": "revokeDocument",
      "outputs": [],
      "stateMutability": "nonpayable",
      "type": "function"
    },
    {
      "inputs": [
        {
          "internalType": "bytes32",
          "name": "role",
          "type": "bytes32"
        },
        {
          "internalType": "address",
          "name": "account",
          "type": "address"
        }
      ],
      "name": "revokeRole",
      "outputs": [],
      "stateMutability": "nonpayable",
      "type": "function"
    },
    {
      "inputs": [
        {
          "internalType": "bytes32",
          "name": "tenantId",
          "type": "bytes32"
        },
        {
          "internalType": "uint32",
          "name": "docType",
          "type": "uint32"
        },
        {
          "internalType": "address",
          "name": "operator",
          "type": "address"
        },
        {
          "internalType": "bool",
          "name": "whitelisted",
          "type": "bool"
        },
        {
          "internalType": "uint16",
          "name": "roleId",
          "type": "uint16"
        }
      ],
      "name": "setCoSignOperator",
      "outputs": [],
      "stateMutability": "nonpayable",
      "type": "function"
    },
    {
      "inputs": [
        {
          "internalType": "bytes32",
          "name": "tenantId",
          "type": "bytes32"
        },
        {
          "internalType": "uint32",
          "name": "docType",
          "type": "uint32"
        },
        {
          "internalType": "bool",
          "name": "enabled",
          "type": "bool"
        },
        {
          "internalType": "uint256",
          "name": "minStake",
          "type": "uint256"
        },
        {
          "internalType": "uint256",
          "name": "minSigners",
          "type": "uint256"
        },
        {
          "internalType": "uint256",
          "name": "requiredRoleMask",
          "type": "uint256"
        }
      ],
      "name": "setCoSignPolicy",
      "outputs": [],
      "stateMutability": "nonpayable",
      "type": "function"
    },
    {
      "inputs": [
        {
          "internalType": "bytes32",
          "name": "tenantId",
          "type": "bytes32"
        },
        {
          "internalType": "uint256",
          "name": "newMinOperatorStake",
          "type": "uint256"
        }
      ],
      "name": "setMinOperatorStake",
      "outputs": [],
      "stateMutability": "nonpayable",
      "type": "function"
    },
    {
      "inputs": [
        {
          "internalType": "bytes32",
          "name": "tenantId",
          "type": "bytes32"
        },
        {
          "internalType": "address",
          "name": "operator",
          "type": "address"
        },
        {
          "internalType": "bool",
          "name": "isActive",
          "type": "bool"
        },
        {
          "internalType": "string",
          "name": "reason",
          "type": "string"
        }
      ],
      "name": "setOperatorStatus",
      "outputs": [],
      "stateMutability": "nonpayable",
      "type": "function"
    },
    {
      "inputs": [
        {
          "internalType": "bytes32",
          "name": "tenantId",
          "type": "bytes32"
        },
        {
          "internalType": "address",
          "name": "delegate",
          "type": "address"
        }
      ],
      "name": "setRecoveryDelegate",
      "outputs": [],
      "stateMutability": "nonpayable",
      "type": "function"
    },
    {
      "inputs": [
        {
          "internalType": "bytes32",
          "name": "tenantId",
          "type": "bytes32"
        },
        {
          "internalType": "bool",
          "name": "isActive",
          "type": "bool"
        }
      ],
      "name": "setTenantStatus",
      "outputs": [],
      "stateMutability": "nonpayable",
      "type": "function"
    },
    {
      "inputs": [
        {
          "internalType": "bytes32",
          "name": "tenantId",
          "type": "bytes32"
        },
        {
          "internalType": "address",
          "name": "newTreasury",
          "type": "address"
        }
      ],
      "name": "setTreasury",
      "outputs": [],
      "stateMutability": "nonpayable",
      "type": "function"
    },
    {
      "inputs": [
        {
          "internalType": "bytes32",
          "name": "tenantId",
          "type": "bytes32"
        },
        {
          "internalType": "uint256",
          "name": "newUnstakeCooldown",
          "type": "uint256"
        }
      ],
      "name": "setUnstakeCooldown",
      "outputs": [],
      "stateMutability": "nonpayable",
      "type": "function"
    },
    {
      "inputs": [
        {
          "internalType": "bytes32",
          "name": "tenantId",
          "type": "bytes32"
        },
        {
          "internalType": "bytes32",
          "name": "violationCode",
          "type": "bytes32"
        },
        {
          "internalType": "uint16",
          "name": "penaltyBps",
          "type": "uint16"
        }
      ],
      "name": "setViolationPenalty",
      "outputs": [],
      "stateMutability": "nonpayable",
      "type": "function"
    },
    {
      "inputs": [
        {
          "internalType": "bytes32",
          "name": "tenantId",
          "type": "bytes32"
        },
        {
          "internalType": "address",
          "name": "_operator",
          "type": "address"
        },
        {
          "internalType": "string",
          "name": "reason",
          "type": "string"
        }
      ],
      "name": "slashOperator",
      "outputs": [],
      "stateMutability": "nonpayable",
      "type": "function"
    },
    {
      "inputs": [
        {
          "internalType": "bytes32",
          "name": "tenantId",
          "type": "bytes32"
        },
        {
          "internalType": "address",
          "name": "_operator",
          "type": "address"
        },
        {
          "internalType": "bytes32",
          "name": "violationCode",
          "type": "bytes32"
        },
        {
          "internalType": "string",
          "name": "reason",
          "type": "string"
        }
      ],
      "name": "softSlashOperator",
      "outputs": [],
      "stateMutability": "nonpayable",
      "type": "function"
    },
    {
      "inputs": [
        {
          "internalType": "bytes4",
          "name": "interfaceId",
          "type": "bytes4"
        }
      ],
      "name": "supportsInterface",
      "outputs": [
        {
          "internalType": "bool",
          "name": "",
          "type": "bool"
        }
      ],
      "stateMutability": "view",
      "type": "function"
    },
    {
      "inputs": [
        {
          "internalType": "bytes32",
          "name": "",
          "type": "bytes32"
        },
        {
          "internalType": "uint32",
          "name": "",
          "type": "uint32"
        }
      ],
      "name": "tenantCoSignPolicies",
      "outputs": [
        {
          "internalType": "bool",
          "name": "enabled",
          "type": "bool"
        },
        {
          "internalType": "uint256",
          "name": "minStake",
          "type": "uint256"
        },
        {
          "internalType": "uint256",
          "name": "minSigners",
          "type": "uint256"
        },
        {
          "internalType": "uint256",
          "name": "requiredRoleMask",
          "type": "uint256"
        }
      ],
      "stateMutability": "view",
      "type": "function"
    },
    {
      "inputs": [
        {
          "internalType": "bytes32",
          "name": "",
          "type": "bytes32"
        },
        {
          "internalType": "uint32",
          "name": "",
          "type": "uint32"
        },
        {
          "internalType": "address",
          "name": "",
          "type": "address"
        }
      ],
      "name": "tenantCoSignRoles",
      "outputs": [
        {
          "internalType": "uint16",
          "name": "",
          "type": "uint16"
        }
      ],
      "stateMutability": "view",
      "type": "function"
    },
    {
      "inputs": [
        {
          "internalType": "bytes32",
          "name": "",
          "type": "bytes32"
        },
        {
          "internalType": "uint32",
          "name": "",
          "type": "uint32"
        },
        {
          "internalType": "address",
          "name": "",
          "type": "address"
        }
      ],
      "name": "tenantCoSignWhitelisted",
      "outputs": [
        {
          "internalType": "bool",
          "name": "",
          "type": "bool"
        }
      ],
      "stateMutability": "view",
      "type": "function"
    },
    {
      "inputs": [
        {
          "internalType": "uint256",
          "name": "",
          "type": "uint256"
        }
      ],
      "name": "tenantList",
      "outputs": [
        {
          "internalType": "bytes32",
          "name": "",
          "type": "bytes32"
        }
      ],
      "stateMutability": "view",
      "type": "function"
    },
    {
      "inputs": [
        {
          "internalType": "bytes32",
          "name": "",
          "type": "bytes32"
        }
      ],
      "name": "tenantMinOperatorStake",
      "outputs": [
        {
          "internalType": "uint256",
          "name": "",
          "type": "uint256"
        }
      ],
      "stateMutability": "view",
      "type": "function"
    },
    {
      "inputs": [
        {
          "internalType": "bytes32",
          "name": "",
          "type": "bytes32"
        }
      ],
      "name": "tenantUnstakeCooldown",
      "outputs": [
        {
          "internalType": "uint256",
          "name": "",
          "type": "uint256"
        }
      ],
      "stateMutability": "view",
      "type": "function"
    },
    {
      "inputs": [
        {
          "internalType": "bytes32",
          "name": "",
          "type": "bytes32"
        },
        {
          "internalType": "bytes32",
          "name": "",
          "type": "bytes32"
        }
      ],
      "name": "tenantViolationPenalties",
      "outputs": [
        {
          "internalType": "uint16",
          "name": "",
          "type": "uint16"
        }
      ],
      "stateMutability": "view",
      "type": "function"
    },
    {
      "inputs": [
        {
          "internalType": "bytes32",
          "name": "",
          "type": "bytes32"
        }
      ],
      "name": "tenants",
      "outputs": [
        {
          "internalType": "address",
          "name": "admin",
          "type": "address"
        },
        {
          "internalType": "address",
          "name": "treasury",
          "type": "address"
        },
        {
          "internalType": "bool",
          "name": "isActive",
          "type": "bool"
        },
        {
          "internalType": "uint256",
          "name": "createdAt",
          "type": "uint256"
        }
      ],
      "stateMutability": "view",
      "type": "function"
    },
    {
      "inputs": [
        {
          "internalType": "bytes32",
          "name": "tenantId",
          "type": "bytes32"
        }
      ],
      "name": "topUpStake",
      "outputs": [],
      "stateMutability": "payable",
      "type": "function"
    },
    {
      "inputs": [
        {
          "internalType": "bytes32",
          "name": "",
          "type": "bytes32"
        },
        {
          "internalType": "bytes32",
          "name": "",
          "type": "bytes32"
        }
      ],
      "name": "trustedCoSignCount",
      "outputs": [
        {
          "internalType": "uint256",
          "name": "",
          "type": "uint256"
        }
      ],
      "stateMutability": "view",
      "type": "function"
    },
    {
      "inputs": [
        {
          "internalType": "bytes32",
          "name": "",
          "type": "bytes32"
        },
        {
          "internalType": "bytes32",
          "name": "",
          "type": "bytes32"
        }
      ],
      "name": "trustedCoSignRoleMask",
      "outputs": [
        {
          "internalType": "uint256",
          "name": "",
          "type": "uint256"
        }
      ],
      "stateMutability": "view",
      "type": "function"
    },
    {
      "inputs": [
        {
          "internalType": "bytes32",
          "name": "tenantId",
          "type": "bytes32"
        },
        {
          "internalType": "string",
          "name": "metadataURI",
          "type": "string"
        }
      ],
      "name": "updateOperatorMetadata",
      "outputs": [],
      "stateMutability": "nonpayable",
      "type": "function"
    }
  ],
  "bytecode": "0x60a060405234801561000f575f5ffd5b5060017f9b779b17422d0df92223018b32b4d1fa46e071723d6817e2486d003becc55f0055600180546001600160a01b03191633908117909155610054905f9061014f565b5061007f7fd0c934f24ef5a377dc3832429ce607cbe940a3ca3c6cd7e532bd35b4b212d1963361014f565b50604080517f8b73c3c69bb8fe3d512ecc4cf759cc79239f7b179b0ffacaa9a75d522b39400f60208201527f32e8a79951df9d41f0345a487dbe19ec03b0a7de9751dd4031f0cc3d0a623968918101919091527fc89efdaa54c0f20c7adf612882df0950f5a951637e0307cdcb4c672f298b8bc660608201524660808201523060a082015260c00160408051601f1981840301815290829052805160209091012060805233907fc130514d7c8c002bccb3fd35204490d020b73c0188386dbb07de86d15d5cb9a0905f90a26101f8565b5f828152602081815260408083206001600160a01b038516845290915281205460ff166101ef575f838152602081815260408083206001600160a01b03861684529091529020805460ff191660011790556101a73390565b6001600160a01b0316826001600160a01b0316847f2f8788117e7eff1d82e926ec794901d17c78024a50270940304540a733656f0d60405160405180910390a45060016101f2565b505f5b92915050565b6080516158446102105f395f61463601526158445ff3fe608060405260043610610392575f3560e01c80638bdb1de3116101de578063c70496a411610108578063e26edb7a1161009d578063f4410c061161006d578063f4410c0614610cd5578063fb827fa814610cf4578063fc89626714610d23578063ff14d45814610d4e575f5ffd5b8063e26edb7a14610c45578063e7b06ccd14610c64578063eaa3668f14610c83578063f3e49baa14610c96575f5ffd5b8063d4b77cfc116100d8578063d4b77cfc14610b88578063d547741f14610ba7578063d9fe7f6714610bc6578063dfa89c1d14610c06575f5ffd5b8063c70496a414610b1c578063cb1c2b5c14610b3b578063cbbb0fec14610b56578063d019036e14610b75575f5ffd5b8063a217fddf1161017e578063aee2bc861161014e578063aee2bc8614610a5d578063b04da8a114610a90578063c1d6ba6914610ac6578063c664e0d514610afd575f5ffd5b8063a217fddf146109ed578063a2375cf314610a00578063a468703d14610a1f578063a60f4c0914610a3e575f5ffd5b8063920da433116101b9578063920da4331461091757806395f001e61461092b57806399c894041461094a5780639e53104214610969575f5ffd5b80638bdb1de3146108ae5780638d18edf0146108d957806391d14854146108f8575f5ffd5b80633ebf6f7d116102bf5780635f2ec6ba1161025f5780636d184dd31161022f5780636d184dd3146107ed578063715eba9a146108235780637ff637311461084257806386e2b63f14610878575f5ffd5b80635f2ec6ba1461074f578063627a654f1461076e5780636b044e3d146107a25780636cc531d4146107c1575f5ffd5b80634f138e011161029a5780634f138e01146106a2578063502ea5c2146106d8578063541bd3ee146107115780635e50980714610730575f5ffd5b80633ebf6f7d146105f357806342149fd0146106645780634d00857a14610683575f5ffd5b80630f3384e011610335578063248a9ca311610305578063248a9ca31461054d57806328a1b2c91461057b5780632f2ff15d146105b557806336568abe146105d4575f5ffd5b80630f3384e0146104ce578063130d571b146104ef5780631b48ba1f1461050e578063246145d81461053a575f5ffd5b80630619a7d0116103705780630619a7d0146104315780630a75a2f0146104855780630b60c58f146104a35780630e0895b9146104b9575f5ffd5b8063015d4ad31461039657806301ffc9a7146103ea5780630225d3cc14610409575b5f5ffd5b3480156103a1575f5ffd5b506103d56103b0366004614ce8565b600960209081525f938452604080852082529284528284209052825290205460ff1681565b60405190151581526020015b60405180910390f35b3480156103f5575f5ffd5b506103d5610404366004614d1a565b610e25565b348015610414575f5ffd5b5061041e61271081565b60405161ffff90911681526020016103e1565b34801561043c575f5ffd5b5061045061044b366004614d5b565b610e5b565b6040516103e1919081511515815260208083015190820152604080830151908201526060918201519181019190915260800190565b348015610490575f5ffd5b506003545b6040519081526020016103e1565b3480156104ae575f5ffd5b506104956201518081565b3480156104c4575f5ffd5b5061041e61010081565b3480156104d9575f5ffd5b506104ed6104e8366004614d85565b610edc565b005b3480156104fa575f5ffd5b506104ed610509366004614df9565b610fb4565b348015610519575f5ffd5b5061052d610528366004614d85565b6110e6565b6040516103e19190614e91565b6104ed610548366004614f3b565b611268565b348015610558575f5ffd5b50610495610567366004614f83565b5f9081526020819052604090206001015490565b348015610586575f5ffd5b5061041e610595366004614d85565b601160209081525f928352604080842090915290825290205461ffff1681565b3480156105c0575f5ffd5b506104ed6105cf366004614f9a565b6114dd565b3480156105df575f5ffd5b506104ed6105ee366004614f9a565b611507565b3480156105fe575f5ffd5b5061064261060d366004614d5b565b600e60209081525f9283526040808420909152908252902080546001820154600283015460039093015460ff90921692909184565b60408051941515855260208501939093529183015260608201526080016103e1565b34801561066f575f5ffd5b506104ed61067e366004614fbb565b61153f565b34801561068e575f5ffd5b506104ed61069d366004615022565b6119b2565b3480156106ad575f5ffd5b506104956106bc366004614d85565b600a60209081525f928352604080842090915290825290205481565b3480156106e3575f5ffd5b506103d56106f2366004614d85565b600d60209081525f928352604080842090915290825290205460ff1681565b34801561071c575f5ffd5b506104ed61072b366004614f83565b611b91565b34801561073b575f5ffd5b506104ed61074a36600461507c565b611d7c565b34801561075a575f5ffd5b506104ed6107693660046150a5565b611ea1565b348015610779575f5ffd5b5061078d610788366004614d85565b6120b8565b6040516103e1999897969594939291906150d5565b3480156107ad575f5ffd5b506104ed6107bc366004615139565b6121ac565b3480156107cc575f5ffd5b506107e06107db366004614f9a565b61229b565b6040516103e19190615170565b3480156107f8575f5ffd5b50610495610807366004614d85565b600b60209081525f928352604080842090915290825290205481565b34801561082e575f5ffd5b506104ed61083d366004614f9a565b6123a9565b34801561084d575f5ffd5b5061049561085c366004614d85565b600c60209081525f928352604080842090915290825290205481565b348015610883575f5ffd5b50610495610892366004614f9a565b600560209081525f928352604080842090915290825290205481565b3480156108b9575f5ffd5b506104956108c8366004614f83565b60126020525f908152604090205481565b3480156108e4575f5ffd5b506104ed6108f33660046151b7565b61248c565b348015610903575f5ffd5b506103d5610912366004614f9a565b612b9c565b348015610922575f5ffd5b5061041e600181565b348015610936575f5ffd5b506104ed61094536600461520c565b612bc4565b348015610955575f5ffd5b50610495610964366004614f83565b612c7f565b348015610974575f5ffd5b506109bc610983366004614f83565b600260208190525f91825260409091208054600182015491909201546001600160a01b0392831692821691600160a01b900460ff169084565b604080516001600160a01b0395861681529490931660208501529015159183019190915260608201526080016103e1565b3480156109f8575f5ffd5b506104955f81565b348015610a0b575f5ffd5b506104ed610a1a366004614f3b565b612c9e565b348015610a2a575f5ffd5b506104ed610a3936600461522d565b612d71565b348015610a49575f5ffd5b506104ed610a5836600461526a565b61330a565b348015610a68575f5ffd5b506104957fd0c934f24ef5a377dc3832429ce607cbe940a3ca3c6cd7e532bd35b4b212d19681565b348015610a9b575f5ffd5b50610495610aaa366004614f9a565b600660209081525f928352604080842090915290825290205481565b348015610ad1575f5ffd5b50600154610ae5906001600160a01b031681565b6040516001600160a01b0390911681526020016103e1565b348015610b08575f5ffd5b506104ed610b17366004614f9a565b61345d565b348015610b27575f5ffd5b50610495610b36366004614f83565b613580565b348015610b46575f5ffd5b5061049567016345785d8a000081565b348015610b61575f5ffd5b506104ed610b70366004614d85565b6135a4565b348015610b80575f5ffd5b5061041e5f81565b348015610b93575f5ffd5b506104ed610ba23660046152be565b61366d565b348015610bb2575f5ffd5b506104ed610bc1366004614f9a565b613ab3565b348015610bd1575f5ffd5b5061041e610be03660046152f0565b601060209081525f938452604080852082529284528284209052825290205461ffff1681565b348015610c11575f5ffd5b50610ae5610c20366004614f9a565b600760209081525f92835260408084209091529082529020546001600160a01b031681565b348015610c50575f5ffd5b506104ed610c5f366004614f83565b613ad7565b348015610c6f575f5ffd5b506104ed610c7e366004615312565b613bf2565b6104ed610c91366004614f83565b613ef5565b348015610ca1575f5ffd5b506103d5610cb03660046152f0565b600f60209081525f938452604080852082529284528284209052825290205460ff1681565b348015610ce0575f5ffd5b506104ed610cef366004614fbb565b614048565b348015610cff575f5ffd5b50610d13610d0e366004614f9a565b61428a565b6040516103e19493929190615358565b348015610d2e575f5ffd5b50610495610d3d366004614f83565b60136020525f908152604090205481565b348015610d59575f5ffd5b50610de2610d68366004614f83565b604080516080810182525f808252602082018190529181018290526060810191909152505f90815260026020818152604092839020835160808101855281546001600160a01b039081168252600183015490811693820193909352600160a01b90920460ff16151593820193909352910154606082015290565b6040516103e1919081516001600160a01b039081168252602080840151909116908201526040808301511515908201526060918201519181019190915260800190565b5f6001600160e01b03198216637965db0b60e01b1480610e5557506301ffc9a760e01b6001600160e01b03198316145b92915050565b610e8460405180608001604052805f151581526020015f81526020015f81526020015f81525090565b505f918252600e6020908152604080842063ffffffff939093168452918152918190208151608081018352815460ff161515815260018201549381019390935260028101549183019190915260030154606082015290565b5f828152600260205260409020546001600160a01b0316610f10576040516315858c8d60e31b815260040160405180910390fd5b610f22610f1c83614347565b33612b9c565b610f3e576040516282b42960e81b815260040160405180910390fd5b805f03610f5e576040516310a571d160e31b815260040160405180910390fd5b5f8281526012602090815260409182902080549084905582518181529182018490529184917fb3e495fc3e71835a852989aa9b3d6b27f6b8d42624cb9b3cf02660a2398cc4f691015b60405180910390a2505050565b5f858152600260205260409020546001600160a01b0316610fe8576040516315858c8d60e31b815260040160405180910390fd5b610ff4610f1c86614347565b611010576040516282b42960e81b815260040160405180910390fd5b5f8581526004602090815260408083206001600160a01b0388168452909152812060020154900361105457604051636567cc4d60e11b815260040160405180910390fd5b5f8581526004602090815260408083206001600160a01b03881684529091529020600301805460ff1916841515179055826110ac575f8581526006602090815260408083206001600160a01b03881684529091528120555b836001600160a01b0316855f5160206157ef5f395f51905f528585856040516110d7939291906153b0565b60405180910390a35050505050565b6111446040518061012001604052805f8152602001606081526020015f6001600160a01b031681526020015f81526020015f151581526020015f81526020015f81526020015f63ffffffff1681526020015f63ffffffff1681525090565b5f8381526008602090815260408083208584528252918290208251610120810190935280548352600181018054919284019161117f906153d4565b80601f01602080910402602001604051908101604052809291908181526020018280546111ab906153d4565b80156111f65780601f106111cd576101008083540402835291602001916111f6565b820191905f5260205f20905b8154815290600101906020018083116111d957829003601f168201915b505050918352505060028201546001600160a01b0316602082015260038201546040820152600482015460ff161515606082015260058201546080820152600682015460a082015260079091015463ffffffff80821660c08401526401000000009091041660e0909101529392505050565b5f838152600260205260409020546001600160a01b031661129c576040516315858c8d60e31b815260040160405180910390fd5b5f83815260026020526040902060010154600160a01b900460ff166112d457604051633ae035b560e21b815260040160405180910390fd5b5f83815260126020526040902054341015611320575f83815260126020526040908190205490516322df051360e11b815234600482015260248101919091526044015b60405180910390fd5b5f83815260046020908152604080832033845290915290206002015415158061136457505f83815260046020908152604080832033845290915290206003015460ff165b156113825760405163781f2ed160e11b815260040160405180910390fd5b604051806080016040528084815260200183838080601f0160208091040260200160405190810160405280939291908181526020018383808284375f920182905250938552505034602080850191909152600160409485018190528884526004825284842033855282529390922084518155918401519192830191611408915082615464565b5060408281015160028301556060909201516003909101805460ff19169115159190911790555f8481526006602090815282822033808452915282822091909155905184907f89093fa8f3c791613d772d3d77195c6050e6b0d2f7915c934f7299c3e60e14d19061147e9086908690349061551f565b60405180910390a3336001600160a01b0316835f5160206157ef5f395f51905f5260016040516114d09115158152604060208201819052600690820152651293d253915160d21b606082015260800190565b60405180910390a3505050565b5f828152602081905260409020600101546114f7816143a8565b61150183836143b2565b50505050565b6001600160a01b03811633146115305760405163334bd91960e11b815260040160405180910390fd5b61153a8282614441565b505050565b5f848152600260205260409020546001600160a01b0316611573576040516315858c8d60e31b815260040160405180910390fd5b5f8481526004602090815260408083206001600160a01b038716845290915290206003015460ff16156115b957604051631ae4c62160e31b815260040160405180910390fd5b5f8481526004602090815260408083206001600160a01b038716845290915281206002015490036115fd5760405163e5e6218160e01b815260040160405180910390fd5b5f8481526006602090815260408083206001600160a01b03871684529091529020541561163d57604051633c10931960e21b815260040160405180910390fd5b5f8481526007602090815260408083206001600160a01b0387811685529252909120541633146116805760405163ce4f24bb60e01b815260040160405180910390fd5b5f8481526004602090815260408083203384529091529020600201541515806116c457505f84815260046020908152604080832033845290915290206003015460ff165b156116e257604051632f55c93160e11b815260040160405180910390fd5b5f8481526004602090815260408083206001600160a01b03871684528252808320815160808101909252805482526001810180549293919291840191611727906153d4565b80601f0160208091040260200160405190810160405280929190818152602001828054611753906153d4565b801561179e5780601f106117755761010080835404028352916020019161179e565b820191905f5260205f20905b81548152906001019060200180831161178157829003601f168201915b50505091835250506002820154602082015260039091015460ff1615156040918201528101519091505f036117e657604051636567cc4d60e11b815260040160405180910390fd5b6040805160808101825286815260208381015181830190815284840151838501526060808601511515908401525f89815260048352848120338252909252929020815181559151909190600182019061183f9082615464565b5060408281015160028301556060909201516003909101805460ff19169115159190911790555f868152600560209081528282206001600160a01b038816808452908252838320543380855285852091909155898452600683528484209084528252838320839055888352600482528383209083529052908120818155906118ca6001830182614c83565b505f600282018190556003909101805460ff191690558581526005602090815260408083206001600160a01b038816808552908352818420849055888452600683528184208185528352818420849055888452600783528184208185529092529182902080546001600160a01b0319169055828201519151339288917fd9f8b9c3708d68f065bd3abc87d385dd96a656d93537a092b9612a9775bd6310916119759189908990615542565b60405180910390a46040515f90339087907f7e8f7689d5c1589dea13355ed1b30d2a11c050a08189c224a84103455f87036f908490a45050505050565b5f858152600260205260409020546001600160a01b03166119e6576040516315858c8d60e31b815260040160405180910390fd5b6119f2610f1c86614347565b611a0e576040516282b42960e81b815260040160405180910390fd5b6001600160a01b038316611a34576040516282b42960e81b815260040160405180910390fd5b8115611ab357600161ffff82161080611a52575061010061ffff8216115b15611a7057604051636005ea8760e11b815260040160405180910390fd5b5f85815260106020908152604080832063ffffffff8816845282528083206001600160a01b03871684529091529020805461ffff191661ffff8316179055611aec565b5f85815260106020908152604080832063ffffffff8816845282528083206001600160a01b03871684529091529020805461ffff191690555b5f858152600f6020908152604080832063ffffffff88168085529083528184206001600160a01b038816808652908452828520805460ff19168815159081179091558a865260108552838620838752855283862082875285529483902054835195865261ffff1693850193909352919288917fdef872ea7445739ffc07c56472edf8475b85cca6440175796472fbf2026f079d91015b60405180910390a45050505050565b611b996144aa565b5f81815260066020908152604080832033845290915281205490819003611bd357604051631509a84360e11b815260040160405180910390fd5b80421015611bf757604051633a84e5cf60e01b815260048101829052602401611317565b5f82815260046020908152604080832033845290915281206002015490819003611c3457604051636567cc4d60e11b815260040160405180910390fd5b5f8381526004602090815260408083203380855290835281842060028101859055600301805460ff19169055868452600683528184208185529092528083208390555183908381818185875af1925050503d805f8114611caf576040519150601f19603f3d011682016040523d82523d5f602084013e611cb4565b606091505b5050905080611cd657604051630db2c7f160e31b815260040160405180910390fd5b604051828152339085907fc95c831f7facab10cbf2586454bb2cdaec5e9702311d8c3c3c2cc804a1abb4ca9060200160405180910390a3336001600160a01b0316845f5160206157ef5f395f51905f525f604051611d58911515815260406020820181905260089082015267155394d51052d15160c21b606082015260800190565b60405180910390a3505050611d7960015f5160206157cf5f395f51905f5255565b50565b5f838152600260205260409020546001600160a01b0316611db0576040516315858c8d60e31b815260040160405180910390fd5b611dbc610f1c84614347565b611dd8576040516282b42960e81b815260040160405180910390fd5b81611df6576040516310a571d160e31b815260040160405180910390fd5b61ffff81161580611e0c575061271061ffff8216115b15611e30576040516332938fe960e21b815261ffff82166004820152602401611317565b5f838152601160209081526040808320858452825291829020805461ffff19811661ffff868116918217909355845192909116808352928201529091849186917fcb56c846dda3cc605bef1888996092a907b9919475bf7505bda8fa8c95123301910160405180910390a350505050565b7fd0c934f24ef5a377dc3832429ce607cbe940a3ca3c6cd7e532bd35b4b212d196611ecb816143a8565b83611ee9576040516310a571d160e31b815260040160405180910390fd5b6001600160a01b0383161580611f0657506001600160a01b038216155b15611f2457604051630e4607ed60e41b815260040160405180910390fd5b5f848152600260205260409020546001600160a01b031615611f59576040516355ad509160e11b815260040160405180910390fd5b604080516080810182526001600160a01b0380861682528481166020808401918252600184860181815242606087019081525f8c8152600294859052978820965187549087166001600160a01b03199091161787559351868301805492511515600160a01b026001600160a81b0319909316919096161717909355905192019190915560038054918201815582527fc2575a0e9e593c00f959f8c92f12db2869c3395a3b0502d05e2516446f71f85b01859055612015856144c5565b90505f61202186614501565b90505f61202d87614347565b905061203983876143b2565b5061204482876143b2565b5061204f81876143b2565b505f87815260126020908152604080832067016345785d8a000090556013909152808220620151809055516001600160a01b0380881692908916918a917f76815c6c3d66579360681cc597126b11d4eaabe670b868db92df92d641a5965c91a450505050505050565b600860209081525f9283526040808420909152908252902080546001820180549192916120e4906153d4565b80601f0160208091040260200160405190810160405280929190818152602001828054612110906153d4565b801561215b5780601f106121325761010080835404028352916020019161215b565b820191905f5260205f20905b81548152906001019060200180831161213e57829003601f168201915b5050506002840154600385015460048601546005870154600688015460079098015496976001600160a01b039094169692955060ff9091169350919063ffffffff8082169164010000000090041689565b5f848152600860209081526040808320868452909152902060028101546001600160a01b03166121ef576040516328193b9d60e21b815260040160405180910390fd5b6121fb610f1c866144c5565b158015612215575060028101546001600160a01b03163314155b15612232576040516282b42960e81b815260040160405180910390fd5b600481015460ff166122575760405163499945c160e01b815260040160405180910390fd5b60048101805460ff191690556040513390859087907fc3cb92e8b6c0aebd791488f8d927216bf2ea5ede447d480f483c21865b04f1a190611b82908890889061555b565b6122c560405180608001604052805f8152602001606081526020015f81526020015f151581525090565b5f8381526004602090815260408083206001600160a01b0386168452825291829020825160808101909352805483526001810180549192840191612308906153d4565b80601f0160208091040260200160405190810160405280929190818152602001828054612334906153d4565b801561237f5780601f106123565761010080835404028352916020019161237f565b820191905f5260205f20905b81548152906001019060200180831161236257829003601f168201915b50505091835250506002820154602082015260039091015460ff1615156040909101529392505050565b5f828152600260205260409020546001600160a01b03166123dd576040516315858c8d60e31b815260040160405180910390fd5b6123e9610f1c836144c5565b612405576040516282b42960e81b815260040160405180910390fd5b6001600160a01b03811661242c57604051630e4607ed60e41b815260040160405180910390fd5b5f8281526002602052604080822060010180546001600160a01b031981166001600160a01b038681169182179093559251911692839186917f7e9441be41617a5403de8dfc31de5901f7525f4e4a606654266fa886d567f53f91a4505050565b6124946144aa565b82355f908152600260205260409020546001600160a01b03166124ca576040516315858c8d60e31b815260040160405180910390fd5b82355f90815260026020526040902060010154600160a01b900460ff1661250457604051633ae035b560e21b815260040160405180910390fd5b82610100013542111561252a5760405163df4cc36d60e01b815260040160405180910390fd5b82355f9081526008602090815260408083208287013584529091529020600201546001600160a01b0316156125725760405163019b268b60e71b815260040160405180910390fd5b5f61257e84848461453f565b84355f9081526004602090815260408083206001600160a01b0385168452909152812060020154919250036125c65760405163127225b560e11b815260040160405180910390fd5b83355f9081526004602090815260408083206001600160a01b038516845290915290206003015460ff1661260d57604051631a8660cb60e01b815260040160405180910390fd5b83355f9081526005602090815260408083206001600160a01b038516845290915290205460e08501351461265457604051638baa579f60e01b815260040160405180910390fd5b60408051610120810182528535815290602082019061267590870187615576565b8080601f0160208091040260200160405190810160405280939291908181526020018383808284375f920191909152505050908252506001600160a01b0383166020820152426040820152600160608083019190915286013560808083019190915286013560a08083019190915260c0918201916126f8919088019088016155b9565b63ffffffff16815260200161271360e0870160c088016155b9565b63ffffffff16905284355f90815260086020908152604080832082890135845282529091208251815590820151600182019061274f9082615464565b506040828101516002830180546001600160a01b039283166001600160a01b031990911617905560608401516003840155608084015160048401805491151560ff1992831617905560a080860151600586015560c080870151600687015560e0870151600790960180546101009098015163ffffffff9081166401000000000267ffffffffffffffff199099169716969096179690961790945588355f81815260096020908152858220818d0135808452908252868320958a16835294815285822080549094166001908117909455828252600a8152858220948252938452848120929092558152600e909152908120909290918391612854919089019089016155b9565b63ffffffff16815260208082019290925260409081015f208151608081018352815460ff16151580825260018301549482019490945260028201549281019290925260030154606082015291506128d25784355f908152600d602090815260408083208289013584529091529020805460ff19166001179055612a31565b84355f908152600f60205260408120906128f260c0880160a089016155b9565b63ffffffff16815260208082019290925260409081015f9081206001600160a01b038616825290925290205460ff168015612957575060208082015186355f9081526004835260408082206001600160a01b0387168352909352919091206002015410155b15612a315784355f9081526010602052604081208161297c60c0890160a08a016155b9565b63ffffffff16815260208082019290925260409081015f9081206001600160a01b038716825290925290205461ffff169050600181108015906129c5575061010061ffff821611155b15612a2f5785355f908152600b60209081526040808320828a013584529091529020600190556129f4816146ea565b86355f818152600c60209081526040808320828c0135808552925290912092909255612a2f91612a2a60c08a0160a08b016155b9565b614705565b505b612a4060e086013560016155e6565b85355f8181526005602090815260408083206001600160a01b0388168085529252909120929092557f092b6bbc92673a71e1b53a3b945184caf28010a041d50f717734c740984858d460e0880135612a998160016155e6565b6040805192835260208301919091520160405180910390a36001600160a01b038216602086013586357fd352cb361a4f142c2abad9421dd213ae4d4b7e836b57e422fbb6c0d6512632e4612af060408a018a615576565b60608b013560808c0135612b0a60c08e0160a08f016155b9565b8d60c0016020810190612b1d91906155b9565b604051612b2f969594939291906155f9565b60405180910390a4816001600160a01b03168560200135865f01357f1aa23f6aa7a78fe1f2e49edc378c1d7d45f3593993339beb9f6f9835f87517be6001604051612b7c91815260200190565b60405180910390a4505061153a60015f5160206157cf5f395f51905f5255565b5f918252602082815260408084206001600160a01b0393909316845291905290205460ff1690565b7fd0c934f24ef5a377dc3832429ce607cbe940a3ca3c6cd7e532bd35b4b212d196612bee816143a8565b5f838152600260205260409020546001600160a01b0316612c22576040516315858c8d60e31b815260040160405180910390fd5b5f83815260026020526040908190206001018054841515600160a01b0260ff60a01b199091161790555183907ff232ed796c7d121df062e0962438bf7a57d1fb9a2c6451caaf7e2695a963cfe690610fa790851515815260200190565b60038181548110612c8e575f80fd5b5f91825260209091200154905081565b5f838152600260205260409020546001600160a01b0316612cd2576040516315858c8d60e31b815260040160405180910390fd5b5f83815260046020908152604080832033845290915290206003015460ff16612d0e57604051631a8660cb60e01b815260040160405180910390fd5b5f8381526004602090815260408083203384529091529020600101612d34828483615637565b50336001600160a01b0316837f8313da849f3eb567d52489e0ba249ce302063096590f8d8b6025d5f7fec89ad984846040516114d092919061555b565b612d796144aa565b82355f908152600260205260409020546001600160a01b0316612daf576040516315858c8d60e31b815260040160405180910390fd5b82355f90815260026020526040902060010154600160a01b900460ff16612de957604051633ae035b560e21b815260040160405180910390fd5b8260600135421115612e0e5760405163df4cc36d60e01b815260040160405180910390fd5b82355f908152600860209081526040808320828701358452825280832081516101208101909252805482526001810180549293919291840191612e50906153d4565b80601f0160208091040260200160405190810160405280929190818152602001828054612e7c906153d4565b8015612ec75780601f10612e9e57610100808354040283529160200191612ec7565b820191905f5260205f20905b815481529060010190602001808311612eaa57829003601f168201915b505050918352505060028201546001600160a01b0390811660208301526003830154604080840191909152600484015460ff161515606084015260058401546080840152600684015460a084015260079093015463ffffffff80821660c08501526401000000009091041660e0909201919091529082015191925016612f60576040516328193b9d60e21b815260040160405180910390fd5b8060800151612f825760405163b863738b60e01b815260040160405180910390fd5b5f612f8e858585614889565b85355f9081526004602090815260408083206001600160a01b038516845290915281206002015491925003612fd65760405163127225b560e11b815260040160405180910390fd5b84355f9081526004602090815260408083206001600160a01b038516845290915290206003015460ff1661301d57604051631a8660cb60e01b815260040160405180910390fd5b84355f9081526005602090815260408083206001600160a01b03851684529091529081902054908601351461306557604051638baa579f60e01b815260040160405180910390fd5b84355f90815260096020908152604080832082890135845282528083206001600160a01b038516845290915290205460ff16156130b557604051630709bc1d60e31b815260040160405180910390fd5b84355f908152600e6020908152604080832060e086015163ffffffff16845282528083208151608081018352815460ff161580158252600183015494820194909452600282015492810192909252600301546060820152919061312c57613129875f01358560e001518585602001516148e7565b90505b86355f818152600960209081526040808320828c01358085529083528184206001600160a01b03891685528352818420805460ff19166001908117909155948452600a8352818420908452909152812054909161318991906155e6565b88355f908152600a60209081526040808320828d01358452909152908190208290559091506131bc9089013560016155e6565b88355f9081526005602090815260408083206001600160a01b038916845290915290205582511561324e5787355f908152600b60209081526040808320828c0135845290915281208054600192906132159084906155e6565b909155505087355f818152600c60209081526040808320828d0135808552925290912080548517905560e087015161324e929190614705565b6001600160a01b03841688357f092b6bbc92673a71e1b53a3b945184caf28010a041d50f717734c740984858d460408b013561328b8160016155e6565b6040805192835260208301919091520160405180910390a3836001600160a01b03168860200135895f01357f1aa23f6aa7a78fe1f2e49edc378c1d7d45f3593993339beb9f6f9835f87517be846040516132e791815260200190565b60405180910390a4505050505061153a60015f5160206157cf5f395f51905f5255565b5f868152600260205260409020546001600160a01b031661333e576040516315858c8d60e31b815260040160405180910390fd5b61334a610f1c87614347565b613366576040516282b42960e81b815260040160405180910390fd5b838015613371575081155b801561337b575080155b1561339957604051631cc23ed560e31b815260040160405180910390fd5b6040805160808101825285151581526020808201868152828401868152606084018681525f8c8152600e855286812063ffffffff8d1680835295528690209451855490151560ff199091161785559151600185015551600284015551600390920191909155905187907ff0a24041e06d08c0414775769d1f217c906f14d760e3f298d16d2c64b2672d909061344d908890889088908890931515845260208401929092526040830152606082015260800190565b60405180910390a3505050505050565b5f828152600260205260409020546001600160a01b0316613491576040516315858c8d60e31b815260040160405180910390fd5b5f82815260046020908152604080832033845290915290206003015460ff166134cd57604051631a8660cb60e01b815260040160405180910390fd5b6001600160a01b0381166134f457604051632f55c93160e11b815260040160405180910390fd5b336001600160a01b0382160361351d57604051632f55c93160e11b815260040160405180910390fd5b5f82815260076020908152604080832033808552925280832080546001600160a01b0319166001600160a01b0386169081179091559051909285917f7e8f7689d5c1589dea13355ed1b30d2a11c050a08189c224a84103455f87036f9190a45050565b5f60038281548110613594576135946156f1565b905f5260205f2001549050919050565b5f828152600260205260409020546001600160a01b03166135d8576040516315858c8d60e31b815260040160405180910390fd5b6135e4610f1c83614347565b613600576040516282b42960e81b815260040160405180910390fd5b805f03613620576040516310a571d160e31b815260040160405180910390fd5b5f8281526013602090815260409182902080549084905582518181529182018490529184917fac9a0b846eb7810e402bb79aeb08206ea6da2dc091e6775f62391fcf42df6cfc9101610fa7565b5f858152600260205260409020546001600160a01b03166136a1576040516315858c8d60e31b815260040160405180910390fd5b6136ad610f1c86614347565b6136c9576040516282b42960e81b815260040160405180910390fd5b5f8581526004602090815260408083206001600160a01b038816845290915290206003015460ff161561370f57604051631ae4c62160e31b815260040160405180910390fd5b6001600160a01b03831615806137365750836001600160a01b0316836001600160a01b0316145b1561375457604051632f55c93160e11b815260040160405180910390fd5b5f8581526004602090815260408083206001600160a01b03871684529091529020600201541515806137aa57505f8581526004602090815260408083206001600160a01b038716845290915290206003015460ff165b156137c857604051632f55c93160e11b815260040160405180910390fd5b5f8581526004602090815260408083206001600160a01b0388168452825280832081516080810190925280548252600181018054929391929184019161380d906153d4565b80601f0160208091040260200160405190810160405280929190818152602001828054613839906153d4565b80156138845780601f1061385b57610100808354040283529160200191613884565b820191905f5260205f20905b81548152906001019060200180831161386757829003601f168201915b50505091835250506002820154602082015260039091015460ff1615156040918201528101519091505f036138cc57604051636567cc4d60e11b815260040160405180910390fd5b6040805160808101825287815260208381015181830190815284840151838501526060808601511515908401525f8a8152600483528481206001600160a01b038a168252909252929020815181559151909190600182019061392e9082615464565b5060408281015160028301556060909201516003909101805460ff19169115159190911790555f878152600560209081528282206001600160a01b0389811680855291835284842054908916808552858520919091558a8452600683528484209084528252838320839055898352600482528383209083529052908120818155906139bc6001830182614c83565b505f600282018190556003909101805460ff191690558681526005602090815260408083206001600160a01b03808a168086529184528285208590558a85526006845282852082865284528285208590558a8552600784528285208286529093529281902080546001600160a01b0319169055838101519051918716929189917fd9f8b9c3708d68f065bd3abc87d385dd96a656d93537a092b9612a9775bd631091613a6c919089908990615542565b60405180910390a46040515f906001600160a01b0386169088907f7e8f7689d5c1589dea13355ed1b30d2a11c050a08189c224a84103455f87036f908490a4505050505050565b5f82815260208190526040902060010154613acd816143a8565b6115018383614441565b5f818152600260205260409020546001600160a01b0316613b0b576040516315858c8d60e31b815260040160405180910390fd5b5f81815260046020908152604080832033845290915290206003015460ff16613b4757604051631a8660cb60e01b815260040160405180910390fd5b5f8181526004602090815260408083203384529091528120600201549003613b8257604051636567cc4d60e11b815260040160405180910390fd5b5f81815260136020526040812054613b9a90426155e6565b5f838152600660209081526040808320338085529083529281902084905551838152929350909184917f1e522a03c71586a099d51a73c0f68c1c799fed85c43cf290bcf7158d8b163ad2910160405180910390a35050565b613bfa6144aa565b5f858152600260205260409020546001600160a01b0316613c2e576040516315858c8d60e31b815260040160405180910390fd5b613c3a610f1c86614501565b613c56576040516282b42960e81b815260040160405180910390fd5b5f8581526004602090815260408083206001600160a01b038816845290915281206002015490819003613c9c57604051636567cc4d60e11b815260040160405180910390fd5b5f86815260116020908152604080832087845290915281205461ffff1690819003613cdd576040516331deee5760e01b815260048101869052602401611317565b5f612710613cef61ffff841685615705565b613cf9919061571c565b9050805f03613d06575060015b5f613d11828561573b565b5f8a81526004602090815260408083206001600160a01b038d168085529083528184206002018590558d84526006835281842090845282528083208390558c83526012909152902054909150811015613e07575f8981526004602090815260408083206001600160a01b038c16808552908352818420600301805460ff191690558c845260078352818420818552835281842080546001600160a01b03191690558151938452918301819052601c908301527f534f46545f534c41534845445f42454c4f575f4d494e5f5354414b45000000006060830152908a905f5160206157ef5f395f51905f529060800160405180910390a35b5f898152600260205260408082206001015490516001600160a01b039091169084908381818185875af1925050503d805f8114613e5f576040519150601f19603f3d011682016040523d82523d5f602084013e613e64565b606091505b5050905080613e8657604051630db2c7f160e31b815260040160405180910390fd5b87896001600160a01b03168b7fe7a3bd933c3f07d41c0cb8538135a0a594505125738765a878a693108558ac3b878787338e8e604051613ecb9695949392919061574e565b60405180910390a45050505050613eee60015f5160206157cf5f395f51905f5255565b5050505050565b5f818152600260205260409020546001600160a01b0316613f29576040516315858c8d60e31b815260040160405180910390fd5b5f8181526004602090815260408083203384529091528120600201549003613f645760405163127225b560e11b815260040160405180910390fd5b5f81815260046020908152604080832033845290915290206003015460ff16613fa057604051631a8660cb60e01b815260040160405180910390fd5b345f03613fc057604051636567cc4d60e11b815260040160405180910390fd5b5f81815260046020908152604080832033845290915281206002018054349290613feb9084906155e6565b90915550505f81815260046020908152604080832033808552908352928190206002015481513481529283015283917f98354ada0e4b6a8410fec2063480eb039a321691ae42acf10b9ad333b092672f910160405180910390a350565b6140506144aa565b5f848152600260205260409020546001600160a01b0316614084576040516315858c8d60e31b815260040160405180910390fd5b614090610f1c85614501565b6140ac576040516282b42960e81b815260040160405180910390fd5b5f8481526004602090815260408083206001600160a01b0387168452909152812060020154908190036140f257604051636567cc4d60e11b815260040160405180910390fd5b5f8581526004602090815260408083206001600160a01b0388811680865291845282852060038101805460ff1916905560029081018690558a86526006855283862083875285528386208690558a86526007855283862092865291845282852080546001600160a01b0319169055898552925280832060010154905191169083908381818185875af1925050503d805f81146141a9576040519150601f19603f3d011682016040523d82523d5f602084013e6141ae565b606091505b50509050806141d057604051630db2c7f160e31b815260040160405180910390fd5b336001600160a01b0316856001600160a01b0316877f175ef2f76f006472eb75e90808dc704bb073491330e002ec9e017969699c14ca85888860405161421893929190615542565b60405180910390a4846001600160a01b0316865f5160206157ef5f395f51905f525f60405161426a91151581526040602082018190526007908201526614d31054d2115160ca1b606082015260800190565b60405180910390a3505061150160015f5160206157cf5f395f51905f5255565b600460209081525f9283526040808420909152908252902080546001820180549192916142b6906153d4565b80601f01602080910402602001604051908101604052809291908181526020018280546142e2906153d4565b801561432d5780601f106143045761010080835404028352916020019161432d565b820191905f5260205f20905b81548152906001019060200180831161431057829003601f168201915b50505050600283015460039093015491929160ff16905084565b6040805160208101829052601c60608201527f54454e414e545f4f50455241544f525f4d414e414745525f524f4c450000000060808201529081018290525f9060a0015b604051602081830303815290604052805190602001209050919050565b611d798133614a24565b5f6143bd8383612b9c565b61443a575f838152602081815260408083206001600160a01b03861684529091529020805460ff191660011790556143f23390565b6001600160a01b0316826001600160a01b0316847f2f8788117e7eff1d82e926ec794901d17c78024a50270940304540a733656f0d60405160405180910390a4506001610e55565b505f610e55565b5f61444c8383612b9c565b1561443a575f838152602081815260408083206001600160a01b0386168085529252808320805460ff1916905551339286917ff6391f5c32d9c69d2a47ea670b442974b53935d1edc7fd64eb21e047a839171b9190a4506001610e55565b6144b2614a61565b60025f5160206157cf5f395f51905f5255565b6040805160208101829052601160608201527054454e414e545f41444d494e5f524f4c4560781b60808201529081018290525f9060a00161438b565b6040805160208101829052601360608201527254454e414e545f534c41534845525f524f4c4560681b60808201529081018290525f9060a00161438b565b5f807f5a2a29527149cfad2193f6f6cc0087ff61ae917e661c07c22456d63a5183659c853560208701356145766040890189615576565b604051614584929190615791565b604051908190039020606089013560808a01356145a760c08c0160a08d016155b9565b6145b760e08d0160c08e016155b9565b6040805160208101999099528801969096526060870194909452608086019290925260a085015260c084015263ffffffff90811660e08481019190915291166101008381019190915290870135610120830152860135610140820152610160015b6040516020818303038152906040528051906020012090505f6146757f00000000000000000000000000000000000000000000000000000000000000008360405161190160f01b8152600281019290925260228201526042902090565b90506146b885858080601f0160208091040260200160405190810160405280939291908181526020018383808284375f920191909152508593925050614a929050565b92506001600160a01b0383166146e157604051638baa579f60e01b815260040160405180910390fd5b50509392505050565b5f6146f66001836157a0565b61ffff166001901b9050919050565b5f838152600d6020908152604080832085845290915290205460ff161561472b57505050565b5f838152600e6020908152604080832063ffffffff851684528252918290208251608081018452815460ff1615158082526001830154938201939093526002820154938101939093526003015460608301526147a85750505f918252600d602090815260408084209284529190529020805460ff19166001179055565b6040808201515f868152600b60209081528382208783528152838220546060860151898452600c83528584208985529092529390912054919092108015929182169091149082906147f65750805b15614881575f868152600d602090815260408083208884528252808320805460ff19166001179055888352600b8252808320888452825280832054898452600c835281842089855290925291829020549151879289927faddff4259d1ed72121575a0a8627d986e7e63da19e837c06d33a958c61e730329261344d9290918252602082015260400190565b505050505050565b604080517f362c00056d2ad738d0353633a51831825692201225c7f50e6206735b03e575e06020828101919091528535828401528501356060828101919091529185013560808201529084013560a08201525f90819060c001614618565b5f848152600f6020908152604080832063ffffffff8716845282528083206001600160a01b038616845290915281205460ff166149375760405163fbf23f3360e01b815260040160405180910390fd5b5f8581526004602090815260408083206001600160a01b03871684529091529020600201548211156149ab575f8581526004602081815260408084206001600160a01b03881685529091529182902060020154915162c09e3560e81b81526113179291859101918252602082015260400190565b5f85815260106020908152604080832063ffffffff8816845282528083206001600160a01b038716845290915290205461ffff1660018110806149f3575061010061ffff8216115b15614a1157604051636005ea8760e11b815260040160405180910390fd5b614a1a816146ea565b9695505050505050565b614a2e8282612b9c565b614a5d5760405163e2517d3f60e01b81526001600160a01b038216600482015260248101839052604401611317565b5050565b5f5160206157cf5f395f51905f5254600203614a9057604051633ee5aeb560e01b815260040160405180910390fd5b565b5f5f5f5f614aa08686614aba565b925092509250614ab08282614b03565b5090949350505050565b5f5f5f8351604103614af1576020840151604085015160608601515f1a614ae388828585614bbb565b955095509550505050614afc565b505081515f91506002905b9250925092565b5f826003811115614b1657614b166157ba565b03614b1f575050565b6001826003811115614b3357614b336157ba565b03614b515760405163f645eedf60e01b815260040160405180910390fd5b6002826003811115614b6557614b656157ba565b03614b865760405163fce698f760e01b815260048101829052602401611317565b6003826003811115614b9a57614b9a6157ba565b03614a5d576040516335e2f38360e21b815260048101829052602401611317565b5f80807f7fffffffffffffffffffffffffffffff5d576e7357a4501ddfe92f46681b20a0841115614bf457505f91506003905082614c79565b604080515f808252602082018084528a905260ff891692820192909252606081018790526080810186905260019060a0016020604051602081039080840390855afa158015614c45573d5f5f3e3d5ffd5b5050604051601f1901519150506001600160a01b038116614c7057505f925060019150829050614c79565b92505f91508190505b9450945094915050565b508054614c8f906153d4565b5f825580601f10614c9e575050565b601f0160209004905f5260205f2090810190611d7991905b80821115614cc9575f8155600101614cb6565b5090565b80356001600160a01b0381168114614ce3575f5ffd5b919050565b5f5f5f60608486031215614cfa575f5ffd5b8335925060208401359150614d1160408501614ccd565b90509250925092565b5f60208284031215614d2a575f5ffd5b81356001600160e01b031981168114614d41575f5ffd5b9392505050565b803563ffffffff81168114614ce3575f5ffd5b5f5f60408385031215614d6c575f5ffd5b82359150614d7c60208401614d48565b90509250929050565b5f5f60408385031215614d96575f5ffd5b50508035926020909101359150565b80358015158114614ce3575f5ffd5b5f5f83601f840112614dc4575f5ffd5b50813567ffffffffffffffff811115614ddb575f5ffd5b602083019150836020828501011115614df2575f5ffd5b9250929050565b5f5f5f5f5f60808688031215614e0d575f5ffd5b85359450614e1d60208701614ccd565b9350614e2b60408701614da5565b9250606086013567ffffffffffffffff811115614e46575f5ffd5b614e5288828901614db4565b969995985093965092949392505050565b5f81518084528060208401602086015e5f602082860101526020601f19601f83011685010191505092915050565b60208152815160208201525f60208301516101206040840152614eb8610140840182614e63565b90506040840151614ed460608501826001600160a01b03169052565b50606084015160808401526080840151614ef260a085018215159052565b5060a084015160c084015260c084015160e084015260e0840151614f1f61010085018263ffffffff169052565b5061010084015163ffffffff8116610120850152509392505050565b5f5f5f60408486031215614f4d575f5ffd5b83359250602084013567ffffffffffffffff811115614f6a575f5ffd5b614f7686828701614db4565b9497909650939450505050565b5f60208284031215614f93575f5ffd5b5035919050565b5f5f60408385031215614fab575f5ffd5b82359150614d7c60208401614ccd565b5f5f5f5f60608587031215614fce575f5ffd5b84359350614fde60208601614ccd565b9250604085013567ffffffffffffffff811115614ff9575f5ffd5b61500587828801614db4565b95989497509550505050565b803561ffff81168114614ce3575f5ffd5b5f5f5f5f5f60a08688031215615036575f5ffd5b8535945061504660208701614d48565b935061505460408701614ccd565b925061506260608701614da5565b915061507060808701615011565b90509295509295909350565b5f5f5f6060848603121561508e575f5ffd5b8335925060208401359150614d1160408501615011565b5f5f5f606084860312156150b7575f5ffd5b833592506150c760208501614ccd565b9150614d1160408501614ccd565b89815261012060208201525f6150ef61012083018b614e63565b6001600160a01b03999099166040830152506060810196909652931515608086015260a085019290925260c084015263ffffffff90811660e0840152166101009091015292915050565b5f5f5f5f6060858703121561514c575f5ffd5b8435935060208501359250604085013567ffffffffffffffff811115614ff9575f5ffd5b60208152815160208201525f60208301516080604084015261519560a0840182614e63565b9050604084015160608401526060840151151560808401528091505092915050565b5f5f5f604084860312156151c9575f5ffd5b833567ffffffffffffffff8111156151df575f5ffd5b840161012081870312156151f1575f5ffd5b9250602084013567ffffffffffffffff811115614f6a575f5ffd5b5f5f6040838503121561521d575f5ffd5b82359150614d7c60208401614da5565b5f5f5f83850360a0811215615240575f5ffd5b608081121561524d575f5ffd5b50839250608084013567ffffffffffffffff811115614f6a575f5ffd5b5f5f5f5f5f5f60c0878903121561527f575f5ffd5b8635955061528f60208801614d48565b945061529d60408801614da5565b959894975094956060810135955060808101359460a0909101359350915050565b5f5f5f5f5f608086880312156152d2575f5ffd5b853594506152e260208701614ccd565b9350614e2b60408701614ccd565b5f5f5f60608486031215615302575f5ffd5b833592506150c760208501614d48565b5f5f5f5f5f60808688031215615326575f5ffd5b8535945061533660208701614ccd565b935060408601359250606086013567ffffffffffffffff811115614e46575f5ffd5b848152608060208201525f6153706080830186614e63565b60408301949094525090151560609091015292915050565b81835281816020850137505f828201602090810191909152601f909101601f19169091010190565b8315158152604060208201525f6153cb604083018486615388565b95945050505050565b600181811c908216806153e857607f821691505b60208210810361540657634e487b7160e01b5f52602260045260245ffd5b50919050565b634e487b7160e01b5f52604160045260245ffd5b601f82111561153a57805f5260205f20601f840160051c810160208510156154455750805b601f840160051c820191505b81811015613eee575f8155600101615451565b815167ffffffffffffffff81111561547e5761547e61540c565b6154928161548c84546153d4565b84615420565b6020601f8211600181146154c4575f83156154ad5750848201515b5f19600385901b1c1916600184901b178455613eee565b5f84815260208120601f198516915b828110156154f357878501518255602094850194600190920191016154d3565b508482101561551057868401515f19600387901b60f8161c191681555b50505050600190811b01905550565b604081525f615532604083018587615388565b9050826020830152949350505050565b838152604060208201525f6153cb604083018486615388565b602081525f61556e602083018486615388565b949350505050565b5f5f8335601e1984360301811261558b575f5ffd5b83018035915067ffffffffffffffff8211156155a5575f5ffd5b602001915036819003821315614df2575f5ffd5b5f602082840312156155c9575f5ffd5b614d4182614d48565b634e487b7160e01b5f52601160045260245ffd5b80820180821115610e5557610e556155d2565b60a081525f61560c60a08301888a615388565b602083019690965250604081019390935263ffffffff91821660608401521660809091015292915050565b67ffffffffffffffff83111561564f5761564f61540c565b6156638361565d83546153d4565b83615420565b5f601f841160018114615694575f851561567d5750838201355b5f19600387901b1c1916600186901b178355613eee565b5f83815260208120601f198716915b828110156156c357868501358255602094850194600190920191016156a3565b50868210156156df575f1960f88860031b161c19848701351681555b505060018560011b0183555050505050565b634e487b7160e01b5f52603260045260245ffd5b8082028115828204841417610e5557610e556155d2565b5f8261573657634e487b7160e01b5f52601260045260245ffd5b500490565b81810381811115610e5557610e556155d2565b61ffff8716815285602082015284604082015260018060a01b038416606082015260a060808201525f61578560a083018486615388565b98975050505050505050565b818382375f9101908152919050565b61ffff8281168282160390811115610e5557610e556155d2565b634e487b7160e01b5f52602160045260245ffdfe9b779b17422d0df92223018b32b4d1fa46e071723d6817e2486d003becc55f00c974b626665c0d05de92a6d1c80baa1fecf1d44a7fe6c4fb1dcbe04cddebb540a2646970667358221220949b70be920e32d45dc0a2a973b6cc05b6dac72d9c06f1d6b854f7efbae5368e64736f6c634300081c0033",
  "linkReferences": {},
  "deployedLinkReferences": {},
  "immutableReferences": {
    "7578": [
      {
        "length": 32,
        "start": 17974
      }
    ]
  },
  "inputSourceName": "project/contracts/VoucherProtocol.sol",
  "buildInfoId": "solc-0_8_28-447b6b6ffadbf5e27e6742e505abd71f3aaba4b6"
}