{
  "_format": "hh3-artifact-1",
  "contractName": "VoucherProtocolReader",
  "sourceName": "contracts/VoucherProtocolReader.sol",
  "abi": [
    {
      "inputs": [
        {
          "internalType": "address",
          "name": "_protocol",
          "type": "address"
        }
      ],
      "stateMutability": "nonpayable",
      "type": "constructor"
    },
    {
      "inputs": [],
      "name": "DocumentNotFound",
      "type": "error"
    },
    {
      "inputs": [
        {
          "internalType": "bytes32",
          "name": "tenantId",
          "type": "bytes32"
        },
        {
          "internalType": "uint32",
          "name": "docType",
          "type": "uint32"
        },
        {
          "internalType": "address",
          "name": "operator",
          "type": "address"
        }
      ],
      "name": "getCoSignOperatorConfig",
      "outputs": [
        {
          "internalType": "bool",
          "name": "whitelisted",
          "type": "bool"
        },
        {
          "internalType": "uint16",
          "name": "roleId",
          "type": "uint16"
        }
      ],
      "stateMutability": "view",
      "type": "function"
    },
    {
      "inputs": [
        {
          "internalType": "bytes32",
          "name": "tenantId",
          "type": "bytes32"
        },
        {
          "internalType": "uint32",
          "name": "docType",
          "type": "uint32"
        }
      ],
      "name": "getCoSignPolicy",
      "outputs": [
        {
          "internalType": "bool",
          "name": "enabled",
          "type": "bool"
        },
        {
          "internalType": "uint256",
          "name": "minStake",
          "type": "uint256"
        },
        {
          "internalType": "uint256",
          "name": "minSigners",
          "type": "uint256"
        },
        {
          "internalType": "uint256",
          "name": "requiredRoleMask",
          "type": "uint256"
        }
      ],
      "stateMutability": "view",
      "type": "function"
    },
    {
      "inputs": [
        {
          "internalType": "bytes32",
          "name": "tenantId",
          "type": "bytes32"
        },
        {
          "internalType": "bytes32",
          "name": "fileHash",
          "type": "bytes32"
        }
      ],
      "name": "getCoSignStatus",
      "outputs": [
        {
          "internalType": "bool",
          "name": "qualified",
          "type": "bool"
        },
        {
          "internalType": "uint256",
          "name": "totalSigners",
          "type": "uint256"
        },
        {
          "internalType": "uint256",
          "name": "trustedSigners",
          "type": "uint256"
        },
        {
          "internalType": "uint256",
          "name": "currentRoleMask",
          "type": "uint256"
        },
        {
          "internalType": "uint256",
          "name": "requiredRoleMask",
          "type": "uint256"
        },
        {
          "internalType": "uint256",
          "name": "minSigners",
          "type": "uint256"
        },
        {
          "internalType": "uint256",
          "name": "minStake",
          "type": "uint256"
        }
      ],
      "stateMutability": "view",
      "type": "function"
    },
    {
      "inputs": [
        {
          "internalType": "bytes32",
          "name": "tenantId",
          "type": "bytes32"
        },
        {
          "internalType": "bytes32",
          "name": "fileHash",
          "type": "bytes32"
        }
      ],
      "name": "getDocumentOrRevert",
      "outputs": [
        {
          "components": [
            {
              "internalType": "bytes32",
              "name": "tenantId",
              "type": "bytes32"
            },
            {
              "internalType": "string",
              "name": "cid",
              "type": "string"
            },
            {
              "internalType": "address",
              "name": "issuer",
              "type": "address"
            },
            {
              "internalType": "uint256",
              "name": "timestamp",
              "type": "uint256"
            },
            {
              "internalType": "bool",
              "name": "isValid",
              "type": "bool"
            },
            {
              "internalType": "bytes32",
              "name": "ciphertextHash",
              "type": "bytes32"
            },
            {
              "internalType": "bytes32",
              "name": "encryptionMetaHash",
              "type": "bytes32"
            },
            {
              "internalType": "uint32",
              "name": "docType",
              "type": "uint32"
            },
            {
              "internalType": "uint32",
              "name": "version",
              "type": "uint32"
            }
          ],
          "internalType": "struct VoucherProtocol.Document",
          "name": "",
          "type": "tuple"
        }
      ],
      "stateMutability": "view",
      "type": "function"
    },
    {
      "inputs": [
        {
          "internalType": "bytes32",
          "name": "tenantId",
          "type": "bytes32"
        },
        {
          "internalType": "bytes32",
          "name": "fileHash",
          "type": "bytes32"
        }
      ],
      "name": "getDocumentStatus",
      "outputs": [
        {
          "components": [
            {
              "internalType": "bool",
              "name": "exists",
              "type": "bool"
            },
            {
              "internalType": "bool",
              "name": "isValid",
              "type": "bool"
            },
            {
              "internalType": "address",
              "name": "issuer",
              "type": "address"
            },
            {
              "internalType": "string",
              "name": "cid",
              "type": "string"
            },
            {
              "internalType": "uint256",
              "name": "timestamp",
              "type": "uint256"
            },
            {
              "internalType": "bytes32",
              "name": "ciphertextHash",
              "type": "bytes32"
            },
            {
              "internalType": "bytes32",
              "name": "encryptionMetaHash",
              "type": "bytes32"
            },
            {
              "internalType": "uint32",
              "name": "docType",
              "type": "uint32"
            },
            {
              "internalType": "uint32",
              "name": "version",
              "type": "uint32"
            },
            {
              "internalType": "uint256",
              "name": "coSignCount",
              "type": "uint256"
            },
            {
              "internalType": "uint256",
              "name": "trustedCoSignCount",
              "type": "uint256"
            },
            {
              "internalType": "uint256",
              "name": "trustedCoSignRoleMask",
              "type": "uint256"
            },
            {
              "internalType": "bool",
              "name": "coSignQualified",
              "type": "bool"
            }
          ],
          "internalType": "struct VoucherProtocol.DocumentSnapshot",
          "name": "",
          "type": "tuple"
        }
      ],
      "stateMutability": "view",
      "type": "function"
    },
    {
      "inputs": [
        {
          "internalType": "bytes32",
          "name": "tenantId",
          "type": "bytes32"
        },
        {
          "internalType": "address",
          "name": "operator",
          "type": "address"
        }
      ],
      "name": "getOperatorStatus",
      "outputs": [
        {
          "internalType": "bool",
          "name": "exists",
          "type": "bool"
        },
        {
          "internalType": "bool",
          "name": "isActive",
          "type": "bool"
        },
        {
          "internalType": "string",
          "name": "metadataURI",
          "type": "string"
        },
        {
          "internalType": "uint256",
          "name": "stakeAmount",
          "type": "uint256"
        },
        {
          "internalType": "uint256",
          "name": "nonce",
          "type": "uint256"
        },
        {
          "internalType": "uint256",
          "name": "unstakeReadyAt",
          "type": "uint256"
        },
        {
          "internalType": "bool",
          "name": "canUnstakeNow",
          "type": "bool"
        },
        {
          "internalType": "address",
          "name": "recoveryDelegate",
          "type": "address"
        }
      ],
      "stateMutability": "view",
      "type": "function"
    },
    {
      "inputs": [],
      "name": "getTenantCount",
      "outputs": [
        {
          "internalType": "uint256",
          "name": "",
          "type": "uint256"
        }
      ],
      "stateMutability": "view",
      "type": "function"
    },
    {
      "inputs": [
        {
          "internalType": "uint256",
          "name": "offset",
          "type": "uint256"
        },
        {
          "internalType": "uint256",
          "name": "limit",
          "type": "uint256"
        }
      ],
      "name": "getTenantIds",
      "outputs": [
        {
          "internalType": "bytes32[]",
          "name": "ids",
          "type": "bytes32[]"
        }
      ],
      "stateMutability": "view",
      "type": "function"
    },
    {
      "inputs": [
        {
          "internalType": "bytes32",
          "name": "tenantId",
          "type": "bytes32"
        }
      ],
      "name": "getTenantInfo",
      "outputs": [
        {
          "internalType": "bool",
          "name": "exists",
          "type": "bool"
        },
        {
          "internalType": "address",
          "name": "admin",
          "type": "address"
        },
        {
          "internalType": "address",
          "name": "treasury",
          "type": "address"
        },
        {
          "internalType": "bool",
          "name": "isActive",
          "type": "bool"
        },
        {
          "internalType": "uint256",
          "name": "createdAt",
          "type": "uint256"
        }
      ],
      "stateMutability": "view",
      "type": "function"
    },
    {
      "inputs": [
        {
          "internalType": "bytes32",
          "name": "tenantId",
          "type": "bytes32"
        }
      ],
      "name": "getTenantRuntimeConfig",
      "outputs": [
        {
          "internalType": "uint256",
          "name": "minOperatorStake",
          "type": "uint256"
        },
        {
          "internalType": "uint256",
          "name": "unstakeCooldown",
          "type": "uint256"
        }
      ],
      "stateMutability": "view",
      "type": "function"
    },
    {
      "inputs": [
        {
          "internalType": "bytes32",
          "name": "tenantId",
          "type": "bytes32"
        },
        {
          "internalType": "bytes32",
          "name": "violationCode",
          "type": "bytes32"
        }
      ],
      "name": "getViolationPenalty",
      "outputs": [
        {
          "internalType": "uint16",
          "name": "penaltyBps",
          "type": "uint16"
        }
      ],
      "stateMutability": "view",
      "type": "function"
    },
    {
      "inputs": [
        {
          "internalType": "bytes32",
          "name": "tenantId",
          "type": "bytes32"
        },
        {
          "internalType": "bytes32",
          "name": "fileHash",
          "type": "bytes32"
        },
        {
          "internalType": "address",
          "name": "signer",
          "type": "address"
        }
      ],
      "name": "hasSignedDocument",
      "outputs": [
        {
          "internalType": "bool",
          "name": "",
          "type": "bool"
        }
      ],
      "stateMutability": "view",
      "type": "function"
    },
    {
      "inputs": [
        {
          "internalType": "bytes32",
          "name": "tenantId",
          "type": "bytes32"
        },
        {
          "internalType": "bytes32",
          "name": "fileHash",
          "type": "bytes32"
        }
      ],
      "name": "isDocumentCoSignQualified",
      "outputs": [
        {
          "internalType": "bool",
          "name": "",
          "type": "bool"
        }
      ],
      "stateMutability": "view",
      "type": "function"
    },
    {
      "inputs": [],
      "name": "protocol",
      "outputs": [
        {
          "internalType": "contract VoucherProtocol",
          "name": "",
          "type": "address"
        }
      ],
      "stateMutability": "view",
      "type": "function"
    },
    {
      "inputs": [
        {
          "internalType": "bytes32",
          "name": "tenantId",
          "type": "bytes32"
        },
        {
          "internalType": "bytes32",
          "name": "fileHash",
          "type": "bytes32"
        }
      ],
      "name": "verify",
      "outputs": [
        {
          "internalType": "bool",
          "name": "exists",
          "type": "bool"
        },
        {
          "internalType": "bool",
          "name": "isValid",
          "type": "bool"
        },
        {
          "internalType": "address",
          "name": "issuer",
          "type": "address"
        },
        {
          "internalType": "string",
          "name": "cid",
          "type": "string"
        }
      ],
      "stateMutability": "view",
      "type": "function"
    }
  ],
  "bytecode": "0x6080604052348015600e575f5ffd5b50604051611d8e380380611d8e833981016040819052602b91604e565b5f80546001600160a01b0319166001600160a01b03929092169190911790556079565b5f60208284031215605d575f5ffd5b81516001600160a01b03811681146072575f5ffd5b9392505050565b611d08806100865f395ff3fe608060405234801561000f575f5ffd5b50600436106100f0575f3560e01c806375cc9436116100935780639149cd49116100635780639149cd49146102be578063bb37cd17146102d4578063d1e4bbde14610301578063f049b6501461034b575f5ffd5b806375cc9436146102145780637c6b9adb1461023c57806385123fd51461025f5780638ce7442614610294575f5ffd5b8063421f9b42116100ce578063421f9b421461015f5780634b263e741461017f5780634e8fee00146101ca5780636ea14e75146101ed575f5ffd5b8063082a8876146100f4578063361410a51461011f5780633dadf6771461013f575b5f5ffd5b61010761010236600461153e565b61035e565b60405161ffff90911681526020015b60405180910390f35b61013261012d36600461153e565b6103d9565b604051610116919061155e565b61015261014d36600461153e565b610574565b60405161011691906115ce565b61017261016d36600461153e565b61095d565b60405161011691906116b4565b61019261018d36600461175b565b610a5d565b6040805195151586526001600160a01b039485166020870152929093169184019190915215156060830152608082015260a001610116565b6101dd6101d836600461153e565b610b04565b6040516101169493929190611772565b6102006101fb3660046117c6565b610bd8565b6040516101169897969594939291906117f4565b61022761022236600461175b565b610e17565b60408051928352602083019190915201610116565b61024f61024a36600461184e565b610ef5565b6040519015158152602001610116565b61027261026d366004611895565b610f77565b6040805194151585526020850193909352918301526060820152608001610116565b5f546102a6906001600160a01b031681565b6040516001600160a01b039091168152602001610116565b6102c6611018565b604051908152602001610116565b6102e76102e23660046118b8565b611091565b60408051921515835261ffff909116602083015201610116565b61031461030f36600461153e565b61119a565b6040805197151588526020880196909652948601939093526060850191909152608084015260a083015260c082015260e001610116565b61024f61035936600461153e565b6114cc565b5f80546040516328a1b2c960e01b815260048101859052602481018490526001600160a01b03909116906328a1b2c990604401602060405180830381865afa1580156103ac573d5f5f3e3d5ffd5b505050506040513d601f19601f820116820180604052508101906103d091906118ec565b90505b92915050565b5f80546040805162a75a2f60e41b81529051606093926001600160a01b031691630a75a2f09160048083019260209291908290030181865afa158015610421573d5f5f3e3d5ffd5b505050506040513d601f19601f82011682018060405250810190610445919061190d565b9050808410610463575050604080515f8152602081019091526103d3565b5f61046e848661194c565b90508181111561047b5750805b610485858261195f565b67ffffffffffffffff81111561049d5761049d611924565b6040519080825280602002602001820160405280156104c6578160200160208202803683370190505b509250845b8181101561056b575f546040516331c125a960e21b8152600481018390526001600160a01b039091169063c70496a490602401602060405180830381865afa158015610519573d5f5f3e3d5ffd5b505050506040513d601f19601f8201168201806040525081019061053d919061190d565b84610548888461195f565b8151811061055857610558611972565b60209081029190910101526001016104cb565b50505092915050565b604080516101a0810182525f808252602082018190529181018290526060808201526080810182905260a0810182905260c0810182905260e0810182905261010081018290526101208101829052610140810182905261016081018290526101808101919091525f8054604051631b48ba1f60e01b815260048101869052602481018590526001600160a01b0390911690631b48ba1f906044015f60405180830381865afa158015610628573d5f5f3e3d5ffd5b505050506040513d5f823e601f3d908101601f1916820160405261064f9190810190611a88565b60408101519091506001600160a01b03166106e0575050604080516101a0810182525f8082526020808301829052828401829052835190810190935280835260608201929092526080810182905260a0810182905260c0810182905260e0810182905261010081018290526101208101829052610140810182905261016081018290526101808101919091526103d3565b604051806101a0016040528060011515815260200182608001511515815260200182604001516001600160a01b0316815260200182602001518152602001826060015181526020018260a0015181526020018260c0015181526020018260e0015163ffffffff16815260200182610100015163ffffffff1681526020015f5f9054906101000a90046001600160a01b03166001600160a01b0316634f138e0187876040518363ffffffff1660e01b81526004016107a7929190918252602082015260400190565b602060405180830381865afa1580156107c2573d5f5f3e3d5ffd5b505050506040513d601f19601f820116820180604052508101906107e6919061190d565b81525f54604051636d184dd360e01b815260048101889052602481018790526020909201916001600160a01b0390911690636d184dd390604401602060405180830381865afa15801561083b573d5f5f3e3d5ffd5b505050506040513d601f19601f8201168201806040525081019061085f919061190d565b81525f54604051637ff6373160e01b815260048101889052602481018790526020909201916001600160a01b0390911690637ff6373190604401602060405180830381865afa1580156108b4573d5f5f3e3d5ffd5b505050506040513d601f19601f820116820180604052508101906108d8919061190d565b81525f5460405163281752e160e11b815260048101889052602481018790526020909201916001600160a01b039091169063502ea5c290604401602060405180830381865afa15801561092d573d5f5f3e3d5ffd5b505050506040513d601f19601f820116820180604052508101906109519190611b63565b15159052949350505050565b6109bb6040518061012001604052805f8152602001606081526020015f6001600160a01b031681526020015f81526020015f151581526020015f81526020015f81526020015f63ffffffff1681526020015f63ffffffff1681525090565b5f8054604051631b48ba1f60e01b815260048101869052602481018590526001600160a01b0390911690631b48ba1f906044015f60405180830381865afa158015610a08573d5f5f3e3d5ffd5b505050506040513d5f823e601f3d908101601f19168201604052610a2f9190810190611a88565b60408101519091506001600160a01b03166103d0576040516328193b9d60e21b815260040160405180910390fd5b5f80546040516001621d657560e31b0319815260048101849052829182918291829182916001600160a01b03169063ff14d45890602401608060405180830381865afa158015610aaf573d5f5f3e3d5ffd5b505050506040513d601f19601f82011682018060405250810190610ad39190611b7c565b8051602082015160408301516060909301516001600160a01b03831615159b929a5090985091965090945092505050565b5f8054604051631b48ba1f60e01b815260048101859052602481018490528291829160609183916001600160a01b0390911690631b48ba1f906044015f60405180830381865afa158015610b5a573d5f5f3e3d5ffd5b505050506040513d5f823e601f3d908101601f19168201604052610b819190810190611a88565b60408101519091506001600160a01b0316610bb457505060408051602081019091525f8082529350839250829150610bcf565b60018160800151826040015183602001519450945094509450505b92959194509250565b5f8054604051631b314c7560e21b8152600481018590526001600160a01b0384811660248301528392606092849283928392839283928392911690636cc531d4906044015f60405180830381865afa158015610c36573d5f5f3e3d5ffd5b505050506040513d5f823e601f3d908101601f19168201604052610c5d9190810190611bda565b905080604001515f141580610c73575080606001515b606082015160208301516040808501515f5491516386e2b63f60e01b8152949d50929b509099509097506001600160a01b0316906386e2b63f90610ccf908e908e906004019182526001600160a01b0316602082015260400190565b602060405180830381865afa158015610cea573d5f5f3e3d5ffd5b505050506040513d601f19601f82011682018060405250810190610d0e919061190d565b5f5460405163b04da8a160e01b8152600481018e90526001600160a01b038d8116602483015292975091169063b04da8a190604401602060405180830381865afa158015610d5e573d5f5f3e3d5ffd5b505050506040513d601f19601f82011682018060405250810190610d82919061190d565b93508315801590610d935750834210155b5f5460405163dfa89c1d60e01b8152600481018e90526001600160a01b038d8116602483015292955091169063dfa89c1d90604401602060405180830381865afa158015610de3573d5f5f3e3d5ffd5b505050506040513d601f19601f82011682018060405250810190610e079190611c6b565b9150509295985092959890939650565b5f8054604051638bdb1de360e01b81526004810184905282916001600160a01b031690638bdb1de390602401602060405180830381865afa158015610e5e573d5f5f3e3d5ffd5b505050506040513d601f19601f82011682018060405250810190610e82919061190d565b5f5460405163fc89626760e01b8152600481018690526001600160a01b039091169063fc89626790602401602060405180830381865afa158015610ec8573d5f5f3e3d5ffd5b505050506040513d601f19601f82011682018060405250810190610eec919061190d565b91509150915091565b5f805460405163015d4ad360e01b815260048101869052602481018590526001600160a01b0384811660448301529091169063015d4ad390606401602060405180830381865afa158015610f4b573d5f5f3e3d5ffd5b505050506040513d601f19601f82011682018060405250810190610f6f9190611b63565b949350505050565b5f805460405162619a7d60e41b81526004810185905263ffffffff8416602482015282918291829182916001600160a01b0390911690630619a7d090604401608060405180830381865afa158015610fd1573d5f5f3e3d5ffd5b505050506040513d601f19601f82011682018060405250810190610ff59190611c86565b805160208201516040830151606090930151919a90995091975095509350505050565b5f5f5f9054906101000a90046001600160a01b03166001600160a01b0316630a75a2f06040518163ffffffff1660e01b8152600401602060405180830381865afa158015611068573d5f5f3e3d5ffd5b505050506040513d601f19601f8201168201806040525081019061108c919061190d565b905090565b5f80546040516379f24dd560e11b81526004810186905263ffffffff851660248201526001600160a01b0384811660448301528392169063f3e49baa90606401602060405180830381865afa1580156110ec573d5f5f3e3d5ffd5b505050506040513d601f19601f820116820180604052508101906111109190611b63565b5f5460405163d9fe7f6760e01b81526004810188905263ffffffff871660248201526001600160a01b0386811660448301529091169063d9fe7f6790606401602060405180830381865afa15801561116a573d5f5f3e3d5ffd5b505050506040513d601f19601f8201168201806040525081019061118e91906118ec565b91509150935093915050565b5f8054604051631b48ba1f60e01b8152600481018590526024810184905282918291829182918291829182916001600160a01b031690631b48ba1f906044015f60405180830381865afa1580156111f3573d5f5f3e3d5ffd5b505050506040513d5f823e601f3d908101601f1916820160405261121a9190810190611a88565b60408101519091506001600160a01b0316611248576040516328193b9d60e21b815260040160405180910390fd5b5f805460e083015160405162619a7d60e41b8152600481018e905263ffffffff90911660248201526001600160a01b0390911690630619a7d090604401608060405180830381865afa1580156112a0573d5f5f3e3d5ffd5b505050506040513d601f19601f820116820180604052508101906112c49190611c86565b5f5460405163281752e160e11b8152600481018e9052602481018d90529192506001600160a01b03169063502ea5c290604401602060405180830381865afa158015611312573d5f5f3e3d5ffd5b505050506040513d601f19601f820116820180604052508101906113369190611b63565b5f54604051634f138e0160e01b8152600481018e9052602481018d90526001600160a01b0390911690634f138e0190604401602060405180830381865afa158015611383573d5f5f3e3d5ffd5b505050506040513d601f19601f820116820180604052508101906113a7919061190d565b5f54604051636d184dd360e01b8152600481018f9052602481018e90526001600160a01b0390911690636d184dd390604401602060405180830381865afa1580156113f4573d5f5f3e3d5ffd5b505050506040513d601f19601f82011682018060405250810190611418919061190d565b5f5f9054906101000a90046001600160a01b03166001600160a01b0316637ff637318f8f6040518363ffffffff1660e01b8152600401611462929190918252602082015260400190565b602060405180830381865afa15801561147d573d5f5f3e3d5ffd5b505050506040513d601f19601f820116820180604052508101906114a1919061190d565b8460600151856040015186602001519850985098509850985098509850505092959891949750929550565b5f805460405163281752e160e11b815260048101859052602481018490526001600160a01b039091169063502ea5c290604401602060405180830381865afa15801561151a573d5f5f3e3d5ffd5b505050506040513d601f19601f820116820180604052508101906103d09190611b63565b5f5f6040838503121561154f575f5ffd5b50508035926020909101359150565b602080825282518282018190525f918401906040840190835b81811015611595578351835260209384019390920191600101611577565b509095945050505050565b5f81518084528060208401602086015e5f602082860101526020601f19601f83011685010191505092915050565b602081526115e160208201835115159052565b5f60208301516115f5604084018215159052565b5060408301516001600160a01b03811660608401525060608301516101a060808401526116266101c08401826115a0565b9050608084015160a084015260a084015160c084015260c084015160e084015260e084015161165e61010085018263ffffffff169052565b5061010084015163ffffffff8116610120850152506101208401516101408401526101408401516101608401526101608401516101808401526101808401516116ac6101a085018215159052565b509392505050565b60208152815160208201525f602083015161012060408401526116db6101408401826115a0565b905060408401516116f760608501826001600160a01b03169052565b5060608401516080840152608084015161171560a085018215159052565b5060a084015160c084015260c084015160e084015260e084015161174261010085018263ffffffff169052565b5061010084015163ffffffff81166101208501526116ac565b5f6020828403121561176b575f5ffd5b5035919050565b841515815283151560208201526001600160a01b03831660408201526080606082018190525f906117a5908301846115a0565b9695505050505050565b6001600160a01b03811681146117c3575f5ffd5b50565b5f5f604083850312156117d7575f5ffd5b8235915060208301356117e9816117af565b809150509250929050565b8815158152871515602082015261010060408201525f6118186101008301896115a0565b606083019790975250608081019490945260a0840192909252151560c08301526001600160a01b031660e0909101529392505050565b5f5f5f60608486031215611860575f5ffd5b83359250602084013591506040840135611879816117af565b809150509250925092565b63ffffffff811681146117c3575f5ffd5b5f5f604083850312156118a6575f5ffd5b8235915060208301356117e981611884565b5f5f5f606084860312156118ca575f5ffd5b8335925060208401356118dc81611884565b91506040840135611879816117af565b5f602082840312156118fc575f5ffd5b815161ffff811681146103d0575f5ffd5b5f6020828403121561191d575f5ffd5b5051919050565b634e487b7160e01b5f52604160045260245ffd5b634e487b7160e01b5f52601160045260245ffd5b808201808211156103d3576103d3611938565b818103818111156103d3576103d3611938565b634e487b7160e01b5f52603260045260245ffd5b604051610120810167ffffffffffffffff811182821017156119aa576119aa611924565b60405290565b6040516080810167ffffffffffffffff811182821017156119aa576119aa611924565b5f82601f8301126119e2575f5ffd5b815167ffffffffffffffff8111156119fc576119fc611924565b604051601f8201601f19908116603f0116810167ffffffffffffffff81118282101715611a2b57611a2b611924565b604052818152838201602001851015611a42575f5ffd5b8160208501602083015e5f918101602001919091529392505050565b8051611a69816117af565b919050565b80518015158114611a69575f5ffd5b8051611a6981611884565b5f60208284031215611a98575f5ffd5b815167ffffffffffffffff811115611aae575f5ffd5b82016101208185031215611ac0575f5ffd5b611ac8611986565b81518152602082015167ffffffffffffffff811115611ae5575f5ffd5b611af1868285016119d3565b602083015250611b0360408301611a5e565b604082015260608281015190820152611b1e60808301611a6e565b608082015260a0828101519082015260c08083015190820152611b4360e08301611a7d565b60e0820152611b556101008301611a7d565b610100820152949350505050565b5f60208284031215611b73575f5ffd5b6103d082611a6e565b5f6080828403128015611b8d575f5ffd5b50611b966119b0565b8251611ba1816117af565b81526020830151611bb1816117af565b6020820152611bc260408401611a6e565b60408201526060928301519281019290925250919050565b5f60208284031215611bea575f5ffd5b815167ffffffffffffffff811115611c00575f5ffd5b820160808185031215611c11575f5ffd5b611c196119b0565b81518152602082015167ffffffffffffffff811115611c36575f5ffd5b611c42868285016119d3565b60208301525060408281015190820152611c5e60608301611a6e565b6060820152949350505050565b5f60208284031215611c7b575f5ffd5b81516103d0816117af565b5f6080828403128015611c97575f5ffd5b50611ca06119b0565b611ca983611a6e565b81526020838101519082015260408084015190820152606092830151928101929092525091905056fea264697066735822122098e4e7dbf5a30cf7c35e921f20a2786dabab1dc67b819222cd2b2f4350fd599664736f6c634300081c0033",
  "linkReferences": {},
  "deployedLinkReferences": {},
  "immutableReferences": {},
  "inputSourceName": "project/contracts/VoucherProtocolReader.sol",
  "buildInfoId": "solc-0_8_28-521f0618225873a713d61a64985bdcc219a0f1de"
}